{
	"contracts/4.FundMe.sol": {
		"FundMe": {
			"abi": [
				{
					"inputs": [],
					"name": "fund",
					"outputs": [],
					"stateMutability": "payable",
					"type": "function"
				},
				{
					"inputs": [
						{
							"internalType": "uint256",
							"name": "",
							"type": "uint256"
						}
					],
					"name": "funders",
					"outputs": [
						{
							"internalType": "address",
							"name": "",
							"type": "address"
						}
					],
					"stateMutability": "view",
					"type": "function"
				},
				{
					"inputs": [
						{
							"internalType": "uint256",
							"name": "ethamount",
							"type": "uint256"
						}
					],
					"name": "getConversationRate",
					"outputs": [
						{
							"internalType": "uint256",
							"name": "",
							"type": "uint256"
						}
					],
					"stateMutability": "view",
					"type": "function"
				},
				{
					"inputs": [],
					"name": "getLatestPrice",
					"outputs": [
						{
							"internalType": "uint256",
							"name": "",
							"type": "uint256"
						}
					],
					"stateMutability": "view",
					"type": "function"
				}
			],
			"devdoc": {
				"kind": "dev",
				"methods": {},
				"version": 1
			},
			"evm": {
				"assembly": "    /* \"contracts/4.FundMe.sol\":465:1295  contract FundMe {... */\n  mstore(0x40, 0x80)\n    /* \"contracts/4.FundMe.sol\":510:517  50*1e18 */\n  0x02b5e3af16b1880000\n    /* \"contracts/4.FundMe.sol\":488:517  uint256 MINIMUM_USD = 50*1e18 */\n  0x00\n  sstore\n    /* \"contracts/4.FundMe.sol\":465:1295  contract FundMe {... */\n  callvalue\n  dup1\n  iszero\n  tag_1\n  jumpi\n  0x00\n  dup1\n  revert\ntag_1:\n  pop\n  dataSize(sub_0)\n  dup1\n  dataOffset(sub_0)\n  0x00\n  codecopy\n  0x00\n  return\nstop\n\nsub_0: assembly {\n        /* \"contracts/4.FundMe.sol\":465:1295  contract FundMe {... */\n      mstore(0x40, 0x80)\n      jumpi(tag_1, lt(calldatasize, 0x04))\n      shr(0xe0, calldataload(0x00))\n      dup1\n      0x4c03815c\n      eq\n      tag_2\n      jumpi\n      dup1\n      0x8e15f473\n      eq\n      tag_3\n      jumpi\n      dup1\n      0xb60d4288\n      eq\n      tag_4\n      jumpi\n      dup1\n      0xdc0d3dff\n      eq\n      tag_5\n      jumpi\n    tag_1:\n      0x00\n      dup1\n      revert\n        /* \"contracts/4.FundMe.sol\":1055:1291  function getConversationRate(uint256 ethamount) public view returns(uint256){... */\n    tag_2:\n      callvalue\n      dup1\n      iszero\n      tag_6\n      jumpi\n      0x00\n      dup1\n      revert\n    tag_6:\n      pop\n      tag_7\n      0x04\n      dup1\n      calldatasize\n      sub\n      dup2\n      add\n      swap1\n      tag_8\n      swap2\n      swap1\n      tag_9\n      jump\t// in\n    tag_8:\n      tag_10\n      jump\t// in\n    tag_7:\n      mload(0x40)\n      tag_11\n      swap2\n      swap1\n      tag_12\n      jump\t// in\n    tag_11:\n      mload(0x40)\n      dup1\n      swap2\n      sub\n      swap1\n      return\n        /* \"contracts/4.FundMe.sol\":730:997  function getLatestPrice() public view returns(uint256) {... */\n    tag_3:\n      callvalue\n      dup1\n      iszero\n      tag_13\n      jumpi\n      0x00\n      dup1\n      revert\n    tag_13:\n      pop\n      tag_14\n      tag_15\n      jump\t// in\n    tag_14:\n      mload(0x40)\n      tag_16\n      swap2\n      swap1\n      tag_12\n      jump\t// in\n    tag_16:\n      mload(0x40)\n      dup1\n      swap2\n      sub\n      swap1\n      return\n        /* \"contracts/4.FundMe.sol\":553:687  function fund() public payable{... */\n    tag_4:\n      tag_17\n      tag_18\n      jump\t// in\n    tag_17:\n      stop\n        /* \"contracts/4.FundMe.sol\":523:547  address[] public funders */\n    tag_5:\n      callvalue\n      dup1\n      iszero\n      tag_19\n      jumpi\n      0x00\n      dup1\n      revert\n    tag_19:\n      pop\n      tag_20\n      0x04\n      dup1\n      calldatasize\n      sub\n      dup2\n      add\n      swap1\n      tag_21\n      swap2\n      swap1\n      tag_9\n      jump\t// in\n    tag_21:\n      tag_22\n      jump\t// in\n    tag_20:\n      mload(0x40)\n      tag_23\n      swap2\n      swap1\n      tag_24\n      jump\t// in\n    tag_23:\n      mload(0x40)\n      dup1\n      swap2\n      sub\n      swap1\n      return\n        /* \"contracts/4.FundMe.sol\":1055:1291  function getConversationRate(uint256 ethamount) public view returns(uint256){... */\n    tag_10:\n        /* \"contracts/4.FundMe.sol\":1123:1130  uint256 */\n      0x00\n        /* \"contracts/4.FundMe.sol\":1137:1153  uint256 ethPrice */\n      dup1\n        /* \"contracts/4.FundMe.sol\":1156:1172  getLatestPrice() */\n      tag_26\n        /* \"contracts/4.FundMe.sol\":1156:1170  getLatestPrice */\n      tag_15\n        /* \"contracts/4.FundMe.sol\":1156:1172  getLatestPrice() */\n      jump\t// in\n    tag_26:\n        /* \"contracts/4.FundMe.sol\":1137:1172  uint256 ethPrice = getLatestPrice() */\n      swap1\n      pop\n        /* \"contracts/4.FundMe.sol\":1205:1227  uint256 ethamountInUsd */\n      0x00\n        /* \"contracts/4.FundMe.sol\":1255:1259  1e18 */\n      0x0de0b6b3a7640000\n        /* \"contracts/4.FundMe.sol\":1243:1251  ethPrice */\n      dup3\n        /* \"contracts/4.FundMe.sol\":1231:1240  ethamount */\n      dup6\n        /* \"contracts/4.FundMe.sol\":1231:1251  ethamount * ethPrice */\n      tag_27\n      swap2\n      swap1\n      tag_28\n      jump\t// in\n    tag_27:\n        /* \"contracts/4.FundMe.sol\":1230:1259  (ethamount * ethPrice) / 1e18 */\n      tag_29\n      swap2\n      swap1\n      tag_30\n      jump\t// in\n    tag_29:\n        /* \"contracts/4.FundMe.sol\":1205:1259  uint256 ethamountInUsd = (ethamount * ethPrice) / 1e18 */\n      swap1\n      pop\n        /* \"contracts/4.FundMe.sol\":1274:1288  ethamountInUsd */\n      dup1\n        /* \"contracts/4.FundMe.sol\":1266:1288  return  ethamountInUsd */\n      swap3\n      pop\n      pop\n      pop\n        /* \"contracts/4.FundMe.sol\":1055:1291  function getConversationRate(uint256 ethamount) public view returns(uint256){... */\n      swap2\n      swap1\n      pop\n      jump\t// out\n        /* \"contracts/4.FundMe.sol\":730:997  function getLatestPrice() public view returns(uint256) {... */\n    tag_15:\n        /* \"contracts/4.FundMe.sol\":776:783  uint256 */\n      0x00\n        /* \"contracts/4.FundMe.sol\":793:824  AggregatorV3Interface priceFeed */\n      dup1\n        /* \"contracts/4.FundMe.sol\":849:891  0xD4a33860578De61DBAbDc8BFdb98FD742fA7028e */\n      0xd4a33860578de61dbabdc8bfdb98fd742fa7028e\n        /* \"contracts/4.FundMe.sol\":793:892  AggregatorV3Interface priceFeed = AggregatorV3Interface(0xD4a33860578De61DBAbDc8BFdb98FD742fA7028e) */\n      swap1\n      pop\n        /* \"contracts/4.FundMe.sol\":906:918  int256 price */\n      0x00\n        /* \"contracts/4.FundMe.sol\":925:934  priceFeed */\n      dup2\n        /* \"contracts/4.FundMe.sol\":925:950  priceFeed.latestRoundData */\n      0xffffffffffffffffffffffffffffffffffffffff\n      and\n      0xfeaf968c\n        /* \"contracts/4.FundMe.sol\":925:952  priceFeed.latestRoundData() */\n      mload(0x40)\n      dup2\n      0xffffffff\n      and\n      0xe0\n      shl\n      dup2\n      mstore\n      0x04\n      add\n      0xa0\n      mload(0x40)\n      dup1\n      dup4\n      sub\n      dup2\n      dup7\n      dup1\n      extcodesize\n      iszero\n      dup1\n      iszero\n      tag_32\n      jumpi\n      0x00\n      dup1\n      revert\n    tag_32:\n      pop\n      gas\n      staticcall\n      iszero\n      dup1\n      iszero\n      tag_34\n      jumpi\n      returndatasize\n      0x00\n      dup1\n      returndatacopy\n      revert(0x00, returndatasize)\n    tag_34:\n      pop\n      pop\n      pop\n      pop\n      mload(0x40)\n      returndatasize\n      not(0x1f)\n      0x1f\n      dup3\n      add\n      and\n      dup3\n      add\n      dup1\n      0x40\n      mstore\n      pop\n      dup2\n      add\n      swap1\n      tag_35\n      swap2\n      swap1\n      tag_36\n      jump\t// in\n    tag_35:\n        /* \"contracts/4.FundMe.sol\":903:952  ( ,int256 price,,,) = priceFeed.latestRoundData() */\n      pop\n      pop\n      pop\n      swap2\n      pop\n      pop\n        /* \"contracts/4.FundMe.sol\":986:990  1e10 */\n      0x02540be400\n        /* \"contracts/4.FundMe.sol\":978:983  price */\n      dup2\n        /* \"contracts/4.FundMe.sol\":978:990  price * 1e10 */\n      tag_37\n      swap2\n      swap1\n      tag_38\n      jump\t// in\n    tag_37:\n        /* \"contracts/4.FundMe.sol\":963:991  return uint256(price * 1e10) */\n      swap3\n      pop\n      pop\n      pop\n        /* \"contracts/4.FundMe.sol\":730:997  function getLatestPrice() public view returns(uint256) {... */\n      swap1\n      jump\t// out\n        /* \"contracts/4.FundMe.sol\":553:687  function fund() public payable{... */\n    tag_18:\n        /* \"contracts/4.FundMe.sol\":636:647  MINIMUM_USD */\n      sload(0x00)\n        /* \"contracts/4.FundMe.sol\":602:632  getConversationRate(msg.value) */\n      tag_40\n        /* \"contracts/4.FundMe.sol\":622:631  msg.value */\n      callvalue\n        /* \"contracts/4.FundMe.sol\":602:621  getConversationRate */\n      tag_10\n        /* \"contracts/4.FundMe.sol\":602:632  getConversationRate(msg.value) */\n      jump\t// in\n    tag_40:\n        /* \"contracts/4.FundMe.sol\":602:647  getConversationRate(msg.value) >= MINIMUM_USD */\n      lt\n      iszero\n        /* \"contracts/4.FundMe.sol\":594:679  require(getConversationRate(msg.value) >= MINIMUM_USD, \"You need to spend more ETH!\") */\n      tag_41\n      jumpi\n      mload(0x40)\n      0x08c379a000000000000000000000000000000000000000000000000000000000\n      dup2\n      mstore\n      0x04\n      add\n      tag_42\n      swap1\n      tag_43\n      jump\t// in\n    tag_42:\n      mload(0x40)\n      dup1\n      swap2\n      sub\n      swap1\n      revert\n    tag_41:\n        /* \"contracts/4.FundMe.sol\":553:687  function fund() public payable{... */\n      jump\t// out\n        /* \"contracts/4.FundMe.sol\":523:547  address[] public funders */\n    tag_22:\n      0x01\n      dup2\n      dup2\n      sload\n      dup2\n      lt\n      tag_44\n      jumpi\n      0x00\n      dup1\n      revert\n    tag_44:\n      swap1\n      0x00\n      mstore\n      keccak256(0x00, 0x20)\n      add\n      0x00\n      swap2\n      pop\n      sload\n      swap1\n      0x0100\n      exp\n      swap1\n      div\n      0xffffffffffffffffffffffffffffffffffffffff\n      and\n      dup2\n      jump\t// out\n        /* \"#utility.yul\":7:148   */\n    tag_47:\n        /* \"#utility.yul\":63:68   */\n      0x00\n        /* \"#utility.yul\":94:100   */\n      dup2\n        /* \"#utility.yul\":88:101   */\n      mload\n        /* \"#utility.yul\":79:101   */\n      swap1\n      pop\n        /* \"#utility.yul\":110:142   */\n      tag_49\n        /* \"#utility.yul\":136:141   */\n      dup2\n        /* \"#utility.yul\":110:142   */\n      tag_50\n      jump\t// in\n    tag_49:\n        /* \"#utility.yul\":7:148   */\n      swap3\n      swap2\n      pop\n      pop\n      jump\t// out\n        /* \"#utility.yul\":154:293   */\n    tag_51:\n        /* \"#utility.yul\":200:205   */\n      0x00\n        /* \"#utility.yul\":238:244   */\n      dup2\n        /* \"#utility.yul\":225:245   */\n      calldataload\n        /* \"#utility.yul\":216:245   */\n      swap1\n      pop\n        /* \"#utility.yul\":254:287   */\n      tag_53\n        /* \"#utility.yul\":281:286   */\n      dup2\n        /* \"#utility.yul\":254:287   */\n      tag_54\n      jump\t// in\n    tag_53:\n        /* \"#utility.yul\":154:293   */\n      swap3\n      swap2\n      pop\n      pop\n      jump\t// out\n        /* \"#utility.yul\":299:442   */\n    tag_55:\n        /* \"#utility.yul\":356:361   */\n      0x00\n        /* \"#utility.yul\":387:393   */\n      dup2\n        /* \"#utility.yul\":381:394   */\n      mload\n        /* \"#utility.yul\":372:394   */\n      swap1\n      pop\n        /* \"#utility.yul\":403:436   */\n      tag_57\n        /* \"#utility.yul\":430:435   */\n      dup2\n        /* \"#utility.yul\":403:436   */\n      tag_54\n      jump\t// in\n    tag_57:\n        /* \"#utility.yul\":299:442   */\n      swap3\n      swap2\n      pop\n      pop\n      jump\t// out\n        /* \"#utility.yul\":448:589   */\n    tag_58:\n        /* \"#utility.yul\":504:509   */\n      0x00\n        /* \"#utility.yul\":535:541   */\n      dup2\n        /* \"#utility.yul\":529:542   */\n      mload\n        /* \"#utility.yul\":520:542   */\n      swap1\n      pop\n        /* \"#utility.yul\":551:583   */\n      tag_60\n        /* \"#utility.yul\":577:582   */\n      dup2\n        /* \"#utility.yul\":551:583   */\n      tag_61\n      jump\t// in\n    tag_60:\n        /* \"#utility.yul\":448:589   */\n      swap3\n      swap2\n      pop\n      pop\n      jump\t// out\n        /* \"#utility.yul\":595:924   */\n    tag_9:\n        /* \"#utility.yul\":654:660   */\n      0x00\n        /* \"#utility.yul\":703:705   */\n      0x20\n        /* \"#utility.yul\":691:700   */\n      dup3\n        /* \"#utility.yul\":682:689   */\n      dup5\n        /* \"#utility.yul\":678:701   */\n      sub\n        /* \"#utility.yul\":674:706   */\n      slt\n        /* \"#utility.yul\":671:790   */\n      iszero\n      tag_63\n      jumpi\n        /* \"#utility.yul\":709:788   */\n      tag_64\n      tag_65\n      jump\t// in\n    tag_64:\n        /* \"#utility.yul\":671:790   */\n    tag_63:\n        /* \"#utility.yul\":829:830   */\n      0x00\n        /* \"#utility.yul\":854:907   */\n      tag_66\n        /* \"#utility.yul\":899:906   */\n      dup5\n        /* \"#utility.yul\":890:896   */\n      dup3\n        /* \"#utility.yul\":879:888   */\n      dup6\n        /* \"#utility.yul\":875:897   */\n      add\n        /* \"#utility.yul\":854:907   */\n      tag_51\n      jump\t// in\n    tag_66:\n        /* \"#utility.yul\":844:907   */\n      swap2\n      pop\n        /* \"#utility.yul\":800:917   */\n      pop\n        /* \"#utility.yul\":595:924   */\n      swap3\n      swap2\n      pop\n      pop\n      jump\t// out\n        /* \"#utility.yul\":930:1901   */\n    tag_36:\n        /* \"#utility.yul\":1033:1039   */\n      0x00\n        /* \"#utility.yul\":1041:1047   */\n      dup1\n        /* \"#utility.yul\":1049:1055   */\n      0x00\n        /* \"#utility.yul\":1057:1063   */\n      dup1\n        /* \"#utility.yul\":1065:1071   */\n      0x00\n        /* \"#utility.yul\":1114:1117   */\n      0xa0\n        /* \"#utility.yul\":1102:1111   */\n      dup7\n        /* \"#utility.yul\":1093:1100   */\n      dup9\n        /* \"#utility.yul\":1089:1112   */\n      sub\n        /* \"#utility.yul\":1085:1118   */\n      slt\n        /* \"#utility.yul\":1082:1202   */\n      iszero\n      tag_68\n      jumpi\n        /* \"#utility.yul\":1121:1200   */\n      tag_69\n      tag_65\n      jump\t// in\n    tag_69:\n        /* \"#utility.yul\":1082:1202   */\n    tag_68:\n        /* \"#utility.yul\":1241:1242   */\n      0x00\n        /* \"#utility.yul\":1266:1329   */\n      tag_70\n        /* \"#utility.yul\":1321:1328   */\n      dup9\n        /* \"#utility.yul\":1312:1318   */\n      dup3\n        /* \"#utility.yul\":1301:1310   */\n      dup10\n        /* \"#utility.yul\":1297:1319   */\n      add\n        /* \"#utility.yul\":1266:1329   */\n      tag_58\n      jump\t// in\n    tag_70:\n        /* \"#utility.yul\":1256:1329   */\n      swap6\n      pop\n        /* \"#utility.yul\":1212:1339   */\n      pop\n        /* \"#utility.yul\":1378:1380   */\n      0x20\n        /* \"#utility.yul\":1404:1467   */\n      tag_71\n        /* \"#utility.yul\":1459:1466   */\n      dup9\n        /* \"#utility.yul\":1450:1456   */\n      dup3\n        /* \"#utility.yul\":1439:1448   */\n      dup10\n        /* \"#utility.yul\":1435:1457   */\n      add\n        /* \"#utility.yul\":1404:1467   */\n      tag_47\n      jump\t// in\n    tag_71:\n        /* \"#utility.yul\":1394:1467   */\n      swap5\n      pop\n        /* \"#utility.yul\":1349:1477   */\n      pop\n        /* \"#utility.yul\":1516:1518   */\n      0x40\n        /* \"#utility.yul\":1542:1606   */\n      tag_72\n        /* \"#utility.yul\":1598:1605   */\n      dup9\n        /* \"#utility.yul\":1589:1595   */\n      dup3\n        /* \"#utility.yul\":1578:1587   */\n      dup10\n        /* \"#utility.yul\":1574:1596   */\n      add\n        /* \"#utility.yul\":1542:1606   */\n      tag_55\n      jump\t// in\n    tag_72:\n        /* \"#utility.yul\":1532:1606   */\n      swap4\n      pop\n        /* \"#utility.yul\":1487:1616   */\n      pop\n        /* \"#utility.yul\":1655:1657   */\n      0x60\n        /* \"#utility.yul\":1681:1745   */\n      tag_73\n        /* \"#utility.yul\":1737:1744   */\n      dup9\n        /* \"#utility.yul\":1728:1734   */\n      dup3\n        /* \"#utility.yul\":1717:1726   */\n      dup10\n        /* \"#utility.yul\":1713:1735   */\n      add\n        /* \"#utility.yul\":1681:1745   */\n      tag_55\n      jump\t// in\n    tag_73:\n        /* \"#utility.yul\":1671:1745   */\n      swap3\n      pop\n        /* \"#utility.yul\":1626:1755   */\n      pop\n        /* \"#utility.yul\":1794:1797   */\n      0x80\n        /* \"#utility.yul\":1821:1884   */\n      tag_74\n        /* \"#utility.yul\":1876:1883   */\n      dup9\n        /* \"#utility.yul\":1867:1873   */\n      dup3\n        /* \"#utility.yul\":1856:1865   */\n      dup10\n        /* \"#utility.yul\":1852:1874   */\n      add\n        /* \"#utility.yul\":1821:1884   */\n      tag_58\n      jump\t// in\n    tag_74:\n        /* \"#utility.yul\":1811:1884   */\n      swap2\n      pop\n        /* \"#utility.yul\":1765:1894   */\n      pop\n        /* \"#utility.yul\":930:1901   */\n      swap3\n      swap6\n      pop\n      swap3\n      swap6\n      swap1\n      swap4\n      pop\n      jump\t// out\n        /* \"#utility.yul\":1907:2025   */\n    tag_75:\n        /* \"#utility.yul\":1994:2018   */\n      tag_77\n        /* \"#utility.yul\":2012:2017   */\n      dup2\n        /* \"#utility.yul\":1994:2018   */\n      tag_78\n      jump\t// in\n    tag_77:\n        /* \"#utility.yul\":1989:1992   */\n      dup3\n        /* \"#utility.yul\":1982:2019   */\n      mstore\n        /* \"#utility.yul\":1907:2025   */\n      pop\n      pop\n      jump\t// out\n        /* \"#utility.yul\":2031:2397   */\n    tag_79:\n        /* \"#utility.yul\":2173:2176   */\n      0x00\n        /* \"#utility.yul\":2194:2261   */\n      tag_81\n        /* \"#utility.yul\":2258:2260   */\n      0x1b\n        /* \"#utility.yul\":2253:2256   */\n      dup4\n        /* \"#utility.yul\":2194:2261   */\n      tag_82\n      jump\t// in\n    tag_81:\n        /* \"#utility.yul\":2187:2261   */\n      swap2\n      pop\n        /* \"#utility.yul\":2270:2363   */\n      tag_83\n        /* \"#utility.yul\":2359:2362   */\n      dup3\n        /* \"#utility.yul\":2270:2363   */\n      tag_84\n      jump\t// in\n    tag_83:\n        /* \"#utility.yul\":2388:2390   */\n      0x20\n        /* \"#utility.yul\":2383:2386   */\n      dup3\n        /* \"#utility.yul\":2379:2391   */\n      add\n        /* \"#utility.yul\":2372:2391   */\n      swap1\n      pop\n        /* \"#utility.yul\":2031:2397   */\n      swap2\n      swap1\n      pop\n      jump\t// out\n        /* \"#utility.yul\":2403:2521   */\n    tag_85:\n        /* \"#utility.yul\":2490:2514   */\n      tag_87\n        /* \"#utility.yul\":2508:2513   */\n      dup2\n        /* \"#utility.yul\":2490:2514   */\n      tag_88\n      jump\t// in\n    tag_87:\n        /* \"#utility.yul\":2485:2488   */\n      dup3\n        /* \"#utility.yul\":2478:2515   */\n      mstore\n        /* \"#utility.yul\":2403:2521   */\n      pop\n      pop\n      jump\t// out\n        /* \"#utility.yul\":2527:2749   */\n    tag_24:\n        /* \"#utility.yul\":2620:2624   */\n      0x00\n        /* \"#utility.yul\":2658:2660   */\n      0x20\n        /* \"#utility.yul\":2647:2656   */\n      dup3\n        /* \"#utility.yul\":2643:2661   */\n      add\n        /* \"#utility.yul\":2635:2661   */\n      swap1\n      pop\n        /* \"#utility.yul\":2671:2742   */\n      tag_90\n        /* \"#utility.yul\":2739:2740   */\n      0x00\n        /* \"#utility.yul\":2728:2737   */\n      dup4\n        /* \"#utility.yul\":2724:2741   */\n      add\n        /* \"#utility.yul\":2715:2721   */\n      dup5\n        /* \"#utility.yul\":2671:2742   */\n      tag_75\n      jump\t// in\n    tag_90:\n        /* \"#utility.yul\":2527:2749   */\n      swap3\n      swap2\n      pop\n      pop\n      jump\t// out\n        /* \"#utility.yul\":2755:3174   */\n    tag_43:\n        /* \"#utility.yul\":2921:2925   */\n      0x00\n        /* \"#utility.yul\":2959:2961   */\n      0x20\n        /* \"#utility.yul\":2948:2957   */\n      dup3\n        /* \"#utility.yul\":2944:2962   */\n      add\n        /* \"#utility.yul\":2936:2962   */\n      swap1\n      pop\n        /* \"#utility.yul\":3008:3017   */\n      dup2\n        /* \"#utility.yul\":3002:3006   */\n      dup2\n        /* \"#utility.yul\":2998:3018   */\n      sub\n        /* \"#utility.yul\":2994:2995   */\n      0x00\n        /* \"#utility.yul\":2983:2992   */\n      dup4\n        /* \"#utility.yul\":2979:2996   */\n      add\n        /* \"#utility.yul\":2972:3019   */\n      mstore\n        /* \"#utility.yul\":3036:3167   */\n      tag_92\n        /* \"#utility.yul\":3162:3166   */\n      dup2\n        /* \"#utility.yul\":3036:3167   */\n      tag_79\n      jump\t// in\n    tag_92:\n        /* \"#utility.yul\":3028:3167   */\n      swap1\n      pop\n        /* \"#utility.yul\":2755:3174   */\n      swap2\n      swap1\n      pop\n      jump\t// out\n        /* \"#utility.yul\":3180:3402   */\n    tag_12:\n        /* \"#utility.yul\":3273:3277   */\n      0x00\n        /* \"#utility.yul\":3311:3313   */\n      0x20\n        /* \"#utility.yul\":3300:3309   */\n      dup3\n        /* \"#utility.yul\":3296:3314   */\n      add\n        /* \"#utility.yul\":3288:3314   */\n      swap1\n      pop\n        /* \"#utility.yul\":3324:3395   */\n      tag_94\n        /* \"#utility.yul\":3392:3393   */\n      0x00\n        /* \"#utility.yul\":3381:3390   */\n      dup4\n        /* \"#utility.yul\":3377:3394   */\n      add\n        /* \"#utility.yul\":3368:3374   */\n      dup5\n        /* \"#utility.yul\":3324:3395   */\n      tag_85\n      jump\t// in\n    tag_94:\n        /* \"#utility.yul\":3180:3402   */\n      swap3\n      swap2\n      pop\n      pop\n      jump\t// out\n        /* \"#utility.yul\":3489:3658   */\n    tag_82:\n        /* \"#utility.yul\":3573:3584   */\n      0x00\n        /* \"#utility.yul\":3607:3613   */\n      dup3\n        /* \"#utility.yul\":3602:3605   */\n      dup3\n        /* \"#utility.yul\":3595:3614   */\n      mstore\n        /* \"#utility.yul\":3647:3651   */\n      0x20\n        /* \"#utility.yul\":3642:3645   */\n      dup3\n        /* \"#utility.yul\":3638:3652   */\n      add\n        /* \"#utility.yul\":3623:3652   */\n      swap1\n      pop\n        /* \"#utility.yul\":3489:3658   */\n      swap3\n      swap2\n      pop\n      pop\n      jump\t// out\n        /* \"#utility.yul\":3664:3849   */\n    tag_30:\n        /* \"#utility.yul\":3704:3705   */\n      0x00\n        /* \"#utility.yul\":3721:3741   */\n      tag_99\n        /* \"#utility.yul\":3739:3740   */\n      dup3\n        /* \"#utility.yul\":3721:3741   */\n      tag_88\n      jump\t// in\n    tag_99:\n        /* \"#utility.yul\":3716:3741   */\n      swap2\n      pop\n        /* \"#utility.yul\":3755:3775   */\n      tag_100\n        /* \"#utility.yul\":3773:3774   */\n      dup4\n        /* \"#utility.yul\":3755:3775   */\n      tag_88\n      jump\t// in\n    tag_100:\n        /* \"#utility.yul\":3750:3775   */\n      swap3\n      pop\n        /* \"#utility.yul\":3794:3795   */\n      dup3\n        /* \"#utility.yul\":3784:3819   */\n      tag_101\n      jumpi\n        /* \"#utility.yul\":3799:3817   */\n      tag_102\n      tag_103\n      jump\t// in\n    tag_102:\n        /* \"#utility.yul\":3784:3819   */\n    tag_101:\n        /* \"#utility.yul\":3841:3842   */\n      dup3\n        /* \"#utility.yul\":3838:3839   */\n      dup3\n        /* \"#utility.yul\":3834:3843   */\n      div\n        /* \"#utility.yul\":3829:3843   */\n      swap1\n      pop\n        /* \"#utility.yul\":3664:3849   */\n      swap3\n      swap2\n      pop\n      pop\n      jump\t// out\n        /* \"#utility.yul\":3855:4846   */\n    tag_38:\n        /* \"#utility.yul\":3894:3901   */\n      0x00\n        /* \"#utility.yul\":3917:3936   */\n      tag_105\n        /* \"#utility.yul\":3934:3935   */\n      dup3\n        /* \"#utility.yul\":3917:3936   */\n      tag_106\n      jump\t// in\n    tag_105:\n        /* \"#utility.yul\":3912:3936   */\n      swap2\n      pop\n        /* \"#utility.yul\":3950:3969   */\n      tag_107\n        /* \"#utility.yul\":3967:3968   */\n      dup4\n        /* \"#utility.yul\":3950:3969   */\n      tag_106\n      jump\t// in\n    tag_107:\n        /* \"#utility.yul\":3945:3969   */\n      swap3\n      pop\n        /* \"#utility.yul\":4151:4152   */\n      dup3\n        /* \"#utility.yul\":4083:4149   */\n      0x7fffffffffffffffffffffffffffffffffffffffffffffffffffffffffffffff\n        /* \"#utility.yul\":4079:4153   */\n      div\n        /* \"#utility.yul\":4076:4077   */\n      dup3\n        /* \"#utility.yul\":4073:4154   */\n      gt\n        /* \"#utility.yul\":4068:4069   */\n      0x00\n        /* \"#utility.yul\":4065:4066   */\n      dup5\n        /* \"#utility.yul\":4061:4070   */\n      sgt\n        /* \"#utility.yul\":4057:4058   */\n      0x00\n        /* \"#utility.yul\":4054:4055   */\n      dup5\n        /* \"#utility.yul\":4050:4059   */\n      sgt\n        /* \"#utility.yul\":4046:4071   */\n      and\n        /* \"#utility.yul\":4042:4155   */\n      and\n        /* \"#utility.yul\":4039:4178   */\n      iszero\n      tag_108\n      jumpi\n        /* \"#utility.yul\":4158:4176   */\n      tag_109\n      tag_110\n      jump\t// in\n    tag_109:\n        /* \"#utility.yul\":4039:4178   */\n    tag_108:\n        /* \"#utility.yul\":4362:4363   */\n      dup2\n        /* \"#utility.yul\":4294:4360   */\n      0x8000000000000000000000000000000000000000000000000000000000000000\n        /* \"#utility.yul\":4289:4364   */\n      sdiv\n        /* \"#utility.yul\":4286:4287   */\n      dup4\n        /* \"#utility.yul\":4282:4365   */\n      slt\n        /* \"#utility.yul\":4277:4278   */\n      0x00\n        /* \"#utility.yul\":4274:4275   */\n      dup5\n        /* \"#utility.yul\":4270:4279   */\n      slt\n        /* \"#utility.yul\":4266:4267   */\n      0x00\n        /* \"#utility.yul\":4263:4264   */\n      dup5\n        /* \"#utility.yul\":4259:4268   */\n      sgt\n        /* \"#utility.yul\":4255:4280   */\n      and\n        /* \"#utility.yul\":4251:4366   */\n      and\n        /* \"#utility.yul\":4248:4389   */\n      iszero\n      tag_111\n      jumpi\n        /* \"#utility.yul\":4369:4387   */\n      tag_112\n      tag_110\n      jump\t// in\n    tag_112:\n        /* \"#utility.yul\":4248:4389   */\n    tag_111:\n        /* \"#utility.yul\":4573:4574   */\n      dup3\n        /* \"#utility.yul\":4505:4571   */\n      0x8000000000000000000000000000000000000000000000000000000000000000\n        /* \"#utility.yul\":4500:4575   */\n      sdiv\n        /* \"#utility.yul\":4497:4498   */\n      dup3\n        /* \"#utility.yul\":4493:4576   */\n      slt\n        /* \"#utility.yul\":4488:4489   */\n      0x00\n        /* \"#utility.yul\":4485:4486   */\n      dup5\n        /* \"#utility.yul\":4481:4490   */\n      sgt\n        /* \"#utility.yul\":4477:4478   */\n      0x00\n        /* \"#utility.yul\":4474:4475   */\n      dup5\n        /* \"#utility.yul\":4470:4479   */\n      slt\n        /* \"#utility.yul\":4466:4491   */\n      and\n        /* \"#utility.yul\":4462:4577   */\n      and\n        /* \"#utility.yul\":4459:4600   */\n      iszero\n      tag_113\n      jumpi\n        /* \"#utility.yul\":4580:4598   */\n      tag_114\n      tag_110\n      jump\t// in\n    tag_114:\n        /* \"#utility.yul\":4459:4600   */\n    tag_113:\n        /* \"#utility.yul\":4783:4784   */\n      dup3\n        /* \"#utility.yul\":4715:4781   */\n      0x7fffffffffffffffffffffffffffffffffffffffffffffffffffffffffffffff\n        /* \"#utility.yul\":4710:4785   */\n      sdiv\n        /* \"#utility.yul\":4707:4708   */\n      dup3\n        /* \"#utility.yul\":4703:4786   */\n      slt\n        /* \"#utility.yul\":4698:4699   */\n      0x00\n        /* \"#utility.yul\":4695:4696   */\n      dup5\n        /* \"#utility.yul\":4691:4700   */\n      slt\n        /* \"#utility.yul\":4687:4688   */\n      0x00\n        /* \"#utility.yul\":4684:4685   */\n      dup5\n        /* \"#utility.yul\":4680:4689   */\n      slt\n        /* \"#utility.yul\":4676:4701   */\n      and\n        /* \"#utility.yul\":4672:4787   */\n      and\n        /* \"#utility.yul\":4669:4810   */\n      iszero\n      tag_115\n      jumpi\n        /* \"#utility.yul\":4790:4808   */\n      tag_116\n      tag_110\n      jump\t// in\n    tag_116:\n        /* \"#utility.yul\":4669:4810   */\n    tag_115:\n        /* \"#utility.yul\":4838:4839   */\n      dup3\n        /* \"#utility.yul\":4835:4836   */\n      dup3\n        /* \"#utility.yul\":4831:4840   */\n      mul\n        /* \"#utility.yul\":4820:4840   */\n      swap1\n      pop\n        /* \"#utility.yul\":3855:4846   */\n      swap3\n      swap2\n      pop\n      pop\n      jump\t// out\n        /* \"#utility.yul\":4852:5200   */\n    tag_28:\n        /* \"#utility.yul\":4892:4899   */\n      0x00\n        /* \"#utility.yul\":4915:4935   */\n      tag_118\n        /* \"#utility.yul\":4933:4934   */\n      dup3\n        /* \"#utility.yul\":4915:4935   */\n      tag_88\n      jump\t// in\n    tag_118:\n        /* \"#utility.yul\":4910:4935   */\n      swap2\n      pop\n        /* \"#utility.yul\":4949:4969   */\n      tag_119\n        /* \"#utility.yul\":4967:4968   */\n      dup4\n        /* \"#utility.yul\":4949:4969   */\n      tag_88\n      jump\t// in\n    tag_119:\n        /* \"#utility.yul\":4944:4969   */\n      swap3\n      pop\n        /* \"#utility.yul\":5137:5138   */\n      dup2\n        /* \"#utility.yul\":5069:5135   */\n      0xffffffffffffffffffffffffffffffffffffffffffffffffffffffffffffffff\n        /* \"#utility.yul\":5065:5139   */\n      div\n        /* \"#utility.yul\":5062:5063   */\n      dup4\n        /* \"#utility.yul\":5059:5140   */\n      gt\n        /* \"#utility.yul\":5054:5055   */\n      dup3\n        /* \"#utility.yul\":5047:5056   */\n      iszero\n        /* \"#utility.yul\":5040:5057   */\n      iszero\n        /* \"#utility.yul\":5036:5141   */\n      and\n        /* \"#utility.yul\":5033:5164   */\n      iszero\n      tag_120\n      jumpi\n        /* \"#utility.yul\":5144:5162   */\n      tag_121\n      tag_110\n      jump\t// in\n    tag_121:\n        /* \"#utility.yul\":5033:5164   */\n    tag_120:\n        /* \"#utility.yul\":5192:5193   */\n      dup3\n        /* \"#utility.yul\":5189:5190   */\n      dup3\n        /* \"#utility.yul\":5185:5194   */\n      mul\n        /* \"#utility.yul\":5174:5194   */\n      swap1\n      pop\n        /* \"#utility.yul\":4852:5200   */\n      swap3\n      swap2\n      pop\n      pop\n      jump\t// out\n        /* \"#utility.yul\":5206:5302   */\n    tag_78:\n        /* \"#utility.yul\":5243:5250   */\n      0x00\n        /* \"#utility.yul\":5272:5296   */\n      tag_123\n        /* \"#utility.yul\":5290:5295   */\n      dup3\n        /* \"#utility.yul\":5272:5296   */\n      tag_124\n      jump\t// in\n    tag_123:\n        /* \"#utility.yul\":5261:5296   */\n      swap1\n      pop\n        /* \"#utility.yul\":5206:5302   */\n      swap2\n      swap1\n      pop\n      jump\t// out\n        /* \"#utility.yul\":5308:5384   */\n    tag_106:\n        /* \"#utility.yul\":5344:5351   */\n      0x00\n        /* \"#utility.yul\":5373:5378   */\n      dup2\n        /* \"#utility.yul\":5362:5378   */\n      swap1\n      pop\n        /* \"#utility.yul\":5308:5384   */\n      swap2\n      swap1\n      pop\n      jump\t// out\n        /* \"#utility.yul\":5390:5516   */\n    tag_124:\n        /* \"#utility.yul\":5427:5434   */\n      0x00\n        /* \"#utility.yul\":5467:5509   */\n      0xffffffffffffffffffffffffffffffffffffffff\n        /* \"#utility.yul\":5460:5465   */\n      dup3\n        /* \"#utility.yul\":5456:5510   */\n      and\n        /* \"#utility.yul\":5445:5510   */\n      swap1\n      pop\n        /* \"#utility.yul\":5390:5516   */\n      swap2\n      swap1\n      pop\n      jump\t// out\n        /* \"#utility.yul\":5522:5599   */\n    tag_88:\n        /* \"#utility.yul\":5559:5566   */\n      0x00\n        /* \"#utility.yul\":5588:5593   */\n      dup2\n        /* \"#utility.yul\":5577:5593   */\n      swap1\n      pop\n        /* \"#utility.yul\":5522:5599   */\n      swap2\n      swap1\n      pop\n      jump\t// out\n        /* \"#utility.yul\":5605:5710   */\n    tag_128:\n        /* \"#utility.yul\":5641:5648   */\n      0x00\n        /* \"#utility.yul\":5681:5703   */\n      0xffffffffffffffffffff\n        /* \"#utility.yul\":5674:5679   */\n      dup3\n        /* \"#utility.yul\":5670:5704   */\n      and\n        /* \"#utility.yul\":5659:5704   */\n      swap1\n      pop\n        /* \"#utility.yul\":5605:5710   */\n      swap2\n      swap1\n      pop\n      jump\t// out\n        /* \"#utility.yul\":5716:5896   */\n    tag_110:\n        /* \"#utility.yul\":5764:5841   */\n      0x4e487b7100000000000000000000000000000000000000000000000000000000\n        /* \"#utility.yul\":5761:5762   */\n      0x00\n        /* \"#utility.yul\":5754:5842   */\n      mstore\n        /* \"#utility.yul\":5861:5865   */\n      0x11\n        /* \"#utility.yul\":5858:5859   */\n      0x04\n        /* \"#utility.yul\":5851:5866   */\n      mstore\n        /* \"#utility.yul\":5885:5889   */\n      0x24\n        /* \"#utility.yul\":5882:5883   */\n      0x00\n        /* \"#utility.yul\":5875:5890   */\n      revert\n        /* \"#utility.yul\":5902:6082   */\n    tag_103:\n        /* \"#utility.yul\":5950:6027   */\n      0x4e487b7100000000000000000000000000000000000000000000000000000000\n        /* \"#utility.yul\":5947:5948   */\n      0x00\n        /* \"#utility.yul\":5940:6028   */\n      mstore\n        /* \"#utility.yul\":6047:6051   */\n      0x12\n        /* \"#utility.yul\":6044:6045   */\n      0x04\n        /* \"#utility.yul\":6037:6052   */\n      mstore\n        /* \"#utility.yul\":6071:6075   */\n      0x24\n        /* \"#utility.yul\":6068:6069   */\n      0x00\n        /* \"#utility.yul\":6061:6076   */\n      revert\n        /* \"#utility.yul\":6211:6328   */\n    tag_65:\n        /* \"#utility.yul\":6320:6321   */\n      0x00\n        /* \"#utility.yul\":6317:6318   */\n      dup1\n        /* \"#utility.yul\":6310:6322   */\n      revert\n        /* \"#utility.yul\":6334:6511   */\n    tag_84:\n        /* \"#utility.yul\":6474:6503   */\n      0x596f75206e65656420746f207370656e64206d6f726520455448210000000000\n        /* \"#utility.yul\":6470:6471   */\n      0x00\n        /* \"#utility.yul\":6462:6468   */\n      dup3\n        /* \"#utility.yul\":6458:6472   */\n      add\n        /* \"#utility.yul\":6451:6504   */\n      mstore\n        /* \"#utility.yul\":6334:6511   */\n      pop\n      jump\t// out\n        /* \"#utility.yul\":6517:6637   */\n    tag_50:\n        /* \"#utility.yul\":6589:6612   */\n      tag_137\n        /* \"#utility.yul\":6606:6611   */\n      dup2\n        /* \"#utility.yul\":6589:6612   */\n      tag_106\n      jump\t// in\n    tag_137:\n        /* \"#utility.yul\":6582:6587   */\n      dup2\n        /* \"#utility.yul\":6579:6613   */\n      eq\n        /* \"#utility.yul\":6569:6631   */\n      tag_138\n      jumpi\n        /* \"#utility.yul\":6627:6628   */\n      0x00\n        /* \"#utility.yul\":6624:6625   */\n      dup1\n        /* \"#utility.yul\":6617:6629   */\n      revert\n        /* \"#utility.yul\":6569:6631   */\n    tag_138:\n        /* \"#utility.yul\":6517:6637   */\n      pop\n      jump\t// out\n        /* \"#utility.yul\":6643:6765   */\n    tag_54:\n        /* \"#utility.yul\":6716:6740   */\n      tag_140\n        /* \"#utility.yul\":6734:6739   */\n      dup2\n        /* \"#utility.yul\":6716:6740   */\n      tag_88\n      jump\t// in\n    tag_140:\n        /* \"#utility.yul\":6709:6714   */\n      dup2\n        /* \"#utility.yul\":6706:6741   */\n      eq\n        /* \"#utility.yul\":6696:6759   */\n      tag_141\n      jumpi\n        /* \"#utility.yul\":6755:6756   */\n      0x00\n        /* \"#utility.yul\":6752:6753   */\n      dup1\n        /* \"#utility.yul\":6745:6757   */\n      revert\n        /* \"#utility.yul\":6696:6759   */\n    tag_141:\n        /* \"#utility.yul\":6643:6765   */\n      pop\n      jump\t// out\n        /* \"#utility.yul\":6771:6891   */\n    tag_61:\n        /* \"#utility.yul\":6843:6866   */\n      tag_143\n        /* \"#utility.yul\":6860:6865   */\n      dup2\n        /* \"#utility.yul\":6843:6866   */\n      tag_128\n      jump\t// in\n    tag_143:\n        /* \"#utility.yul\":6836:6841   */\n      dup2\n        /* \"#utility.yul\":6833:6867   */\n      eq\n        /* \"#utility.yul\":6823:6885   */\n      tag_144\n      jumpi\n        /* \"#utility.yul\":6881:6882   */\n      0x00\n        /* \"#utility.yul\":6878:6879   */\n      dup1\n        /* \"#utility.yul\":6871:6883   */\n      revert\n        /* \"#utility.yul\":6823:6885   */\n    tag_144:\n        /* \"#utility.yul\":6771:6891   */\n      pop\n      jump\t// out\n\n    auxdata: 0xa2646970667358221220d909c841b1ed15970e143a0dd34ac338821c8342964a0406b17f90d35dd80ae864736f6c63430008070033\n}\n",
				"bytecode": {
					"linkReferences": {},
					"object": "60806040526802b5e3af16b188000060005534801561001d57600080fd5b5061071c8061002d6000396000f3fe60806040526004361061003f5760003560e01c80634c03815c146100445780638e15f47314610081578063b60d4288146100ac578063dc0d3dff146100b6575b600080fd5b34801561005057600080fd5b5061006b600480360381019061006691906102c7565b6100f3565b60405161007891906103eb565b60405180910390f35b34801561008d57600080fd5b5061009661012d565b6040516100a391906103eb565b60405180910390f35b6100b46101e5565b005b3480156100c257600080fd5b506100dd60048036038101906100d891906102c7565b610234565b6040516100ea91906103b0565b60405180910390f35b6000806100fe61012d565b90506000670de0b6b3a76400008285610117919061055f565b6101219190610417565b90508092505050919050565b60008073d4a33860578de61dbabdc8bfdb98fd742fa7028e905060008173ffffffffffffffffffffffffffffffffffffffff1663feaf968c6040518163ffffffff1660e01b815260040160a06040518083038186803b15801561018f57600080fd5b505afa1580156101a3573d6000803e3d6000fd5b505050506040513d601f19601f820116820180604052508101906101c791906102f4565b5050509150506402540be400816101de9190610448565b9250505090565b6000546101f1346100f3565b1015610232576040517f08c379a0000000000000000000000000000000000000000000000000000000008152600401610229906103cb565b60405180910390fd5b565b6001818154811061024457600080fd5b906000526020600020016000915054906101000a900473ffffffffffffffffffffffffffffffffffffffff1681565b600081519050610282816106a1565b92915050565b600081359050610297816106b8565b92915050565b6000815190506102ac816106b8565b92915050565b6000815190506102c1816106cf565b92915050565b6000602082840312156102dd576102dc610673565b5b60006102eb84828501610288565b91505092915050565b600080600080600060a086880312156103105761030f610673565b5b600061031e888289016102b2565b955050602061032f88828901610273565b94505060406103408882890161029d565b93505060606103518882890161029d565b9250506080610362888289016102b2565b9150509295509295909350565b610378816105b9565b82525050565b600061038b601b83610406565b915061039682610678565b602082019050919050565b6103aa816105f5565b82525050565b60006020820190506103c5600083018461036f565b92915050565b600060208201905081810360008301526103e48161037e565b9050919050565b600060208201905061040060008301846103a1565b92915050565b600082825260208201905092915050565b6000610422826105f5565b915061042d836105f5565b92508261043d5761043c610644565b5b828204905092915050565b6000610453826105cb565b915061045e836105cb565b9250827f7fffffffffffffffffffffffffffffffffffffffffffffffffffffffffffffff048211600084136000841316161561049d5761049c610615565b5b817f800000000000000000000000000000000000000000000000000000000000000005831260008412600084131616156104da576104d9610615565b5b827f8000000000000000000000000000000000000000000000000000000000000000058212600084136000841216161561051757610516610615565b5b827f7fffffffffffffffffffffffffffffffffffffffffffffffffffffffffffffff058212600084126000841216161561055457610553610615565b5b828202905092915050565b600061056a826105f5565b9150610575836105f5565b9250817fffffffffffffffffffffffffffffffffffffffffffffffffffffffffffffffff04831182151516156105ae576105ad610615565b5b828202905092915050565b60006105c4826105d5565b9050919050565b6000819050919050565b600073ffffffffffffffffffffffffffffffffffffffff82169050919050565b6000819050919050565b600069ffffffffffffffffffff82169050919050565b7f4e487b7100000000000000000000000000000000000000000000000000000000600052601160045260246000fd5b7f4e487b7100000000000000000000000000000000000000000000000000000000600052601260045260246000fd5b600080fd5b7f596f75206e65656420746f207370656e64206d6f726520455448210000000000600082015250565b6106aa816105cb565b81146106b557600080fd5b50565b6106c1816105f5565b81146106cc57600080fd5b50565b6106d8816105ff565b81146106e357600080fd5b5056fea2646970667358221220d909c841b1ed15970e143a0dd34ac338821c8342964a0406b17f90d35dd80ae864736f6c63430008070033",
					"opcodes": "PUSH1 0x80 PUSH1 0x40 MSTORE PUSH9 0x2B5E3AF16B1880000 PUSH1 0x0 SSTORE CALLVALUE DUP1 ISZERO PUSH2 0x1D JUMPI PUSH1 0x0 DUP1 REVERT JUMPDEST POP PUSH2 0x71C DUP1 PUSH2 0x2D PUSH1 0x0 CODECOPY PUSH1 0x0 RETURN INVALID PUSH1 0x80 PUSH1 0x40 MSTORE PUSH1 0x4 CALLDATASIZE LT PUSH2 0x3F JUMPI PUSH1 0x0 CALLDATALOAD PUSH1 0xE0 SHR DUP1 PUSH4 0x4C03815C EQ PUSH2 0x44 JUMPI DUP1 PUSH4 0x8E15F473 EQ PUSH2 0x81 JUMPI DUP1 PUSH4 0xB60D4288 EQ PUSH2 0xAC JUMPI DUP1 PUSH4 0xDC0D3DFF EQ PUSH2 0xB6 JUMPI JUMPDEST PUSH1 0x0 DUP1 REVERT JUMPDEST CALLVALUE DUP1 ISZERO PUSH2 0x50 JUMPI PUSH1 0x0 DUP1 REVERT JUMPDEST POP PUSH2 0x6B PUSH1 0x4 DUP1 CALLDATASIZE SUB DUP2 ADD SWAP1 PUSH2 0x66 SWAP2 SWAP1 PUSH2 0x2C7 JUMP JUMPDEST PUSH2 0xF3 JUMP JUMPDEST PUSH1 0x40 MLOAD PUSH2 0x78 SWAP2 SWAP1 PUSH2 0x3EB JUMP JUMPDEST PUSH1 0x40 MLOAD DUP1 SWAP2 SUB SWAP1 RETURN JUMPDEST CALLVALUE DUP1 ISZERO PUSH2 0x8D JUMPI PUSH1 0x0 DUP1 REVERT JUMPDEST POP PUSH2 0x96 PUSH2 0x12D JUMP JUMPDEST PUSH1 0x40 MLOAD PUSH2 0xA3 SWAP2 SWAP1 PUSH2 0x3EB JUMP JUMPDEST PUSH1 0x40 MLOAD DUP1 SWAP2 SUB SWAP1 RETURN JUMPDEST PUSH2 0xB4 PUSH2 0x1E5 JUMP JUMPDEST STOP JUMPDEST CALLVALUE DUP1 ISZERO PUSH2 0xC2 JUMPI PUSH1 0x0 DUP1 REVERT JUMPDEST POP PUSH2 0xDD PUSH1 0x4 DUP1 CALLDATASIZE SUB DUP2 ADD SWAP1 PUSH2 0xD8 SWAP2 SWAP1 PUSH2 0x2C7 JUMP JUMPDEST PUSH2 0x234 JUMP JUMPDEST PUSH1 0x40 MLOAD PUSH2 0xEA SWAP2 SWAP1 PUSH2 0x3B0 JUMP JUMPDEST PUSH1 0x40 MLOAD DUP1 SWAP2 SUB SWAP1 RETURN JUMPDEST PUSH1 0x0 DUP1 PUSH2 0xFE PUSH2 0x12D JUMP JUMPDEST SWAP1 POP PUSH1 0x0 PUSH8 0xDE0B6B3A7640000 DUP3 DUP6 PUSH2 0x117 SWAP2 SWAP1 PUSH2 0x55F JUMP JUMPDEST PUSH2 0x121 SWAP2 SWAP1 PUSH2 0x417 JUMP JUMPDEST SWAP1 POP DUP1 SWAP3 POP POP POP SWAP2 SWAP1 POP JUMP JUMPDEST PUSH1 0x0 DUP1 PUSH20 0xD4A33860578DE61DBABDC8BFDB98FD742FA7028E SWAP1 POP PUSH1 0x0 DUP2 PUSH20 0xFFFFFFFFFFFFFFFFFFFFFFFFFFFFFFFFFFFFFFFF AND PUSH4 0xFEAF968C PUSH1 0x40 MLOAD DUP2 PUSH4 0xFFFFFFFF AND PUSH1 0xE0 SHL DUP2 MSTORE PUSH1 0x4 ADD PUSH1 0xA0 PUSH1 0x40 MLOAD DUP1 DUP4 SUB DUP2 DUP7 DUP1 EXTCODESIZE ISZERO DUP1 ISZERO PUSH2 0x18F JUMPI PUSH1 0x0 DUP1 REVERT JUMPDEST POP GAS STATICCALL ISZERO DUP1 ISZERO PUSH2 0x1A3 JUMPI RETURNDATASIZE PUSH1 0x0 DUP1 RETURNDATACOPY RETURNDATASIZE PUSH1 0x0 REVERT JUMPDEST POP POP POP POP PUSH1 0x40 MLOAD RETURNDATASIZE PUSH1 0x1F NOT PUSH1 0x1F DUP3 ADD AND DUP3 ADD DUP1 PUSH1 0x40 MSTORE POP DUP2 ADD SWAP1 PUSH2 0x1C7 SWAP2 SWAP1 PUSH2 0x2F4 JUMP JUMPDEST POP POP POP SWAP2 POP POP PUSH5 0x2540BE400 DUP2 PUSH2 0x1DE SWAP2 SWAP1 PUSH2 0x448 JUMP JUMPDEST SWAP3 POP POP POP SWAP1 JUMP JUMPDEST PUSH1 0x0 SLOAD PUSH2 0x1F1 CALLVALUE PUSH2 0xF3 JUMP JUMPDEST LT ISZERO PUSH2 0x232 JUMPI PUSH1 0x40 MLOAD PUSH32 0x8C379A000000000000000000000000000000000000000000000000000000000 DUP2 MSTORE PUSH1 0x4 ADD PUSH2 0x229 SWAP1 PUSH2 0x3CB JUMP JUMPDEST PUSH1 0x40 MLOAD DUP1 SWAP2 SUB SWAP1 REVERT JUMPDEST JUMP JUMPDEST PUSH1 0x1 DUP2 DUP2 SLOAD DUP2 LT PUSH2 0x244 JUMPI PUSH1 0x0 DUP1 REVERT JUMPDEST SWAP1 PUSH1 0x0 MSTORE PUSH1 0x20 PUSH1 0x0 KECCAK256 ADD PUSH1 0x0 SWAP2 POP SLOAD SWAP1 PUSH2 0x100 EXP SWAP1 DIV PUSH20 0xFFFFFFFFFFFFFFFFFFFFFFFFFFFFFFFFFFFFFFFF AND DUP2 JUMP JUMPDEST PUSH1 0x0 DUP2 MLOAD SWAP1 POP PUSH2 0x282 DUP2 PUSH2 0x6A1 JUMP JUMPDEST SWAP3 SWAP2 POP POP JUMP JUMPDEST PUSH1 0x0 DUP2 CALLDATALOAD SWAP1 POP PUSH2 0x297 DUP2 PUSH2 0x6B8 JUMP JUMPDEST SWAP3 SWAP2 POP POP JUMP JUMPDEST PUSH1 0x0 DUP2 MLOAD SWAP1 POP PUSH2 0x2AC DUP2 PUSH2 0x6B8 JUMP JUMPDEST SWAP3 SWAP2 POP POP JUMP JUMPDEST PUSH1 0x0 DUP2 MLOAD SWAP1 POP PUSH2 0x2C1 DUP2 PUSH2 0x6CF JUMP JUMPDEST SWAP3 SWAP2 POP POP JUMP JUMPDEST PUSH1 0x0 PUSH1 0x20 DUP3 DUP5 SUB SLT ISZERO PUSH2 0x2DD JUMPI PUSH2 0x2DC PUSH2 0x673 JUMP JUMPDEST JUMPDEST PUSH1 0x0 PUSH2 0x2EB DUP5 DUP3 DUP6 ADD PUSH2 0x288 JUMP JUMPDEST SWAP2 POP POP SWAP3 SWAP2 POP POP JUMP JUMPDEST PUSH1 0x0 DUP1 PUSH1 0x0 DUP1 PUSH1 0x0 PUSH1 0xA0 DUP7 DUP9 SUB SLT ISZERO PUSH2 0x310 JUMPI PUSH2 0x30F PUSH2 0x673 JUMP JUMPDEST JUMPDEST PUSH1 0x0 PUSH2 0x31E DUP9 DUP3 DUP10 ADD PUSH2 0x2B2 JUMP JUMPDEST SWAP6 POP POP PUSH1 0x20 PUSH2 0x32F DUP9 DUP3 DUP10 ADD PUSH2 0x273 JUMP JUMPDEST SWAP5 POP POP PUSH1 0x40 PUSH2 0x340 DUP9 DUP3 DUP10 ADD PUSH2 0x29D JUMP JUMPDEST SWAP4 POP POP PUSH1 0x60 PUSH2 0x351 DUP9 DUP3 DUP10 ADD PUSH2 0x29D JUMP JUMPDEST SWAP3 POP POP PUSH1 0x80 PUSH2 0x362 DUP9 DUP3 DUP10 ADD PUSH2 0x2B2 JUMP JUMPDEST SWAP2 POP POP SWAP3 SWAP6 POP SWAP3 SWAP6 SWAP1 SWAP4 POP JUMP JUMPDEST PUSH2 0x378 DUP2 PUSH2 0x5B9 JUMP JUMPDEST DUP3 MSTORE POP POP JUMP JUMPDEST PUSH1 0x0 PUSH2 0x38B PUSH1 0x1B DUP4 PUSH2 0x406 JUMP JUMPDEST SWAP2 POP PUSH2 0x396 DUP3 PUSH2 0x678 JUMP JUMPDEST PUSH1 0x20 DUP3 ADD SWAP1 POP SWAP2 SWAP1 POP JUMP JUMPDEST PUSH2 0x3AA DUP2 PUSH2 0x5F5 JUMP JUMPDEST DUP3 MSTORE POP POP JUMP JUMPDEST PUSH1 0x0 PUSH1 0x20 DUP3 ADD SWAP1 POP PUSH2 0x3C5 PUSH1 0x0 DUP4 ADD DUP5 PUSH2 0x36F JUMP JUMPDEST SWAP3 SWAP2 POP POP JUMP JUMPDEST PUSH1 0x0 PUSH1 0x20 DUP3 ADD SWAP1 POP DUP2 DUP2 SUB PUSH1 0x0 DUP4 ADD MSTORE PUSH2 0x3E4 DUP2 PUSH2 0x37E JUMP JUMPDEST SWAP1 POP SWAP2 SWAP1 POP JUMP JUMPDEST PUSH1 0x0 PUSH1 0x20 DUP3 ADD SWAP1 POP PUSH2 0x400 PUSH1 0x0 DUP4 ADD DUP5 PUSH2 0x3A1 JUMP JUMPDEST SWAP3 SWAP2 POP POP JUMP JUMPDEST PUSH1 0x0 DUP3 DUP3 MSTORE PUSH1 0x20 DUP3 ADD SWAP1 POP SWAP3 SWAP2 POP POP JUMP JUMPDEST PUSH1 0x0 PUSH2 0x422 DUP3 PUSH2 0x5F5 JUMP JUMPDEST SWAP2 POP PUSH2 0x42D DUP4 PUSH2 0x5F5 JUMP JUMPDEST SWAP3 POP DUP3 PUSH2 0x43D JUMPI PUSH2 0x43C PUSH2 0x644 JUMP JUMPDEST JUMPDEST DUP3 DUP3 DIV SWAP1 POP SWAP3 SWAP2 POP POP JUMP JUMPDEST PUSH1 0x0 PUSH2 0x453 DUP3 PUSH2 0x5CB JUMP JUMPDEST SWAP2 POP PUSH2 0x45E DUP4 PUSH2 0x5CB JUMP JUMPDEST SWAP3 POP DUP3 PUSH32 0x7FFFFFFFFFFFFFFFFFFFFFFFFFFFFFFFFFFFFFFFFFFFFFFFFFFFFFFFFFFFFFFF DIV DUP3 GT PUSH1 0x0 DUP5 SGT PUSH1 0x0 DUP5 SGT AND AND ISZERO PUSH2 0x49D JUMPI PUSH2 0x49C PUSH2 0x615 JUMP JUMPDEST JUMPDEST DUP2 PUSH32 0x8000000000000000000000000000000000000000000000000000000000000000 SDIV DUP4 SLT PUSH1 0x0 DUP5 SLT PUSH1 0x0 DUP5 SGT AND AND ISZERO PUSH2 0x4DA JUMPI PUSH2 0x4D9 PUSH2 0x615 JUMP JUMPDEST JUMPDEST DUP3 PUSH32 0x8000000000000000000000000000000000000000000000000000000000000000 SDIV DUP3 SLT PUSH1 0x0 DUP5 SGT PUSH1 0x0 DUP5 SLT AND AND ISZERO PUSH2 0x517 JUMPI PUSH2 0x516 PUSH2 0x615 JUMP JUMPDEST JUMPDEST DUP3 PUSH32 0x7FFFFFFFFFFFFFFFFFFFFFFFFFFFFFFFFFFFFFFFFFFFFFFFFFFFFFFFFFFFFFFF SDIV DUP3 SLT PUSH1 0x0 DUP5 SLT PUSH1 0x0 DUP5 SLT AND AND ISZERO PUSH2 0x554 JUMPI PUSH2 0x553 PUSH2 0x615 JUMP JUMPDEST JUMPDEST DUP3 DUP3 MUL SWAP1 POP SWAP3 SWAP2 POP POP JUMP JUMPDEST PUSH1 0x0 PUSH2 0x56A DUP3 PUSH2 0x5F5 JUMP JUMPDEST SWAP2 POP PUSH2 0x575 DUP4 PUSH2 0x5F5 JUMP JUMPDEST SWAP3 POP DUP2 PUSH32 0xFFFFFFFFFFFFFFFFFFFFFFFFFFFFFFFFFFFFFFFFFFFFFFFFFFFFFFFFFFFFFFFF DIV DUP4 GT DUP3 ISZERO ISZERO AND ISZERO PUSH2 0x5AE JUMPI PUSH2 0x5AD PUSH2 0x615 JUMP JUMPDEST JUMPDEST DUP3 DUP3 MUL SWAP1 POP SWAP3 SWAP2 POP POP JUMP JUMPDEST PUSH1 0x0 PUSH2 0x5C4 DUP3 PUSH2 0x5D5 JUMP JUMPDEST SWAP1 POP SWAP2 SWAP1 POP JUMP JUMPDEST PUSH1 0x0 DUP2 SWAP1 POP SWAP2 SWAP1 POP JUMP JUMPDEST PUSH1 0x0 PUSH20 0xFFFFFFFFFFFFFFFFFFFFFFFFFFFFFFFFFFFFFFFF DUP3 AND SWAP1 POP SWAP2 SWAP1 POP JUMP JUMPDEST PUSH1 0x0 DUP2 SWAP1 POP SWAP2 SWAP1 POP JUMP JUMPDEST PUSH1 0x0 PUSH10 0xFFFFFFFFFFFFFFFFFFFF DUP3 AND SWAP1 POP SWAP2 SWAP1 POP JUMP JUMPDEST PUSH32 0x4E487B7100000000000000000000000000000000000000000000000000000000 PUSH1 0x0 MSTORE PUSH1 0x11 PUSH1 0x4 MSTORE PUSH1 0x24 PUSH1 0x0 REVERT JUMPDEST PUSH32 0x4E487B7100000000000000000000000000000000000000000000000000000000 PUSH1 0x0 MSTORE PUSH1 0x12 PUSH1 0x4 MSTORE PUSH1 0x24 PUSH1 0x0 REVERT JUMPDEST PUSH1 0x0 DUP1 REVERT JUMPDEST PUSH32 0x596F75206E65656420746F207370656E64206D6F726520455448210000000000 PUSH1 0x0 DUP3 ADD MSTORE POP JUMP JUMPDEST PUSH2 0x6AA DUP2 PUSH2 0x5CB JUMP JUMPDEST DUP2 EQ PUSH2 0x6B5 JUMPI PUSH1 0x0 DUP1 REVERT JUMPDEST POP JUMP JUMPDEST PUSH2 0x6C1 DUP2 PUSH2 0x5F5 JUMP JUMPDEST DUP2 EQ PUSH2 0x6CC JUMPI PUSH1 0x0 DUP1 REVERT JUMPDEST POP JUMP JUMPDEST PUSH2 0x6D8 DUP2 PUSH2 0x5FF JUMP JUMPDEST DUP2 EQ PUSH2 0x6E3 JUMPI PUSH1 0x0 DUP1 REVERT JUMPDEST POP JUMP INVALID LOG2 PUSH5 0x6970667358 0x22 SLT KECCAK256 0xD9 MULMOD 0xC8 COINBASE 0xB1 0xED ISZERO SWAP8 0xE EQ GASPRICE 0xD 0xD3 0x4A 0xC3 CODESIZE DUP3 SHR DUP4 TIMESTAMP SWAP7 0x4A DIV MOD 0xB1 PUSH32 0x90D35DD80AE864736F6C63430008070033000000000000000000000000000000 "
				},
				"gasEstimates": {
					"creation": {
						"codeDepositCost": "364000",
						"executionCost": "22505",
						"totalCost": "386505"
					},
					"external": {
						"fund()": "infinite",
						"funders(uint256)": "5000",
						"getConversationRate(uint256)": "infinite",
						"getLatestPrice()": "infinite"
					}
				},
				"methodIdentifiers": {
					"fund()": "b60d4288",
					"funders(uint256)": "dc0d3dff",
					"getConversationRate(uint256)": "4c03815c",
					"getLatestPrice()": "8e15f473"
				}
			},
			"storageLayout": {
				"storage": [
					{
						"astId": 54,
						"contract": "contracts/4.FundMe.sol:FundMe",
						"label": "MINIMUM_USD",
						"offset": 0,
						"slot": "0",
						"type": "t_uint256"
					},
					{
						"astId": 57,
						"contract": "contracts/4.FundMe.sol:FundMe",
						"label": "funders",
						"offset": 0,
						"slot": "1",
						"type": "t_array(t_address)dyn_storage"
					}
				],
				"types": {
					"t_address": {
						"encoding": "inplace",
						"label": "address",
						"numberOfBytes": "20"
					},
					"t_array(t_address)dyn_storage": {
						"base": "t_address",
						"encoding": "dynamic_array",
						"label": "address[]",
						"numberOfBytes": "32"
					},
					"t_uint256": {
						"encoding": "inplace",
						"label": "uint256",
						"numberOfBytes": "32"
					}
				}
			},
			"userdoc": {
				"kind": "user",
				"methods": {},
				"notice": "Network: Goerli Aggregator: ETH/USD Address: 0xD4a33860578De61DBAbDc8BFdb98FD742fA7028e",
				"version": 1
			}
		}
	}
}