{
	"contracts/4.FundMe.sol": {
		"FundMe": {
			"abi": [
				{
					"inputs": [
						{
							"internalType": "address",
							"name": "",
							"type": "address"
						}
					],
					"name": "addressToAmountFunded",
					"outputs": [
						{
							"internalType": "uint256",
							"name": "",
							"type": "uint256"
						}
					],
					"stateMutability": "view",
					"type": "function"
				},
				{
					"inputs": [],
					"name": "fund",
					"outputs": [],
					"stateMutability": "payable",
					"type": "function"
				},
				{
					"inputs": [
						{
							"internalType": "uint256",
							"name": "",
							"type": "uint256"
						}
					],
					"name": "funders",
					"outputs": [
						{
							"internalType": "address",
							"name": "",
							"type": "address"
						}
					],
					"stateMutability": "view",
					"type": "function"
				},
				{
					"inputs": [],
					"name": "withdraw",
					"outputs": [],
					"stateMutability": "nonpayable",
					"type": "function"
				}
			],
			"devdoc": {
				"kind": "dev",
				"methods": {},
				"version": 1
			},
			"evm": {
				"assembly": "    /* \"contracts/4.FundMe.sol\":421:1075  contract FundMe {... */\n  mstore(0x40, 0x80)\n    /* \"contracts/4.FundMe.sol\":503:510  50*1e18 */\n  0x02b5e3af16b1880000\n    /* \"contracts/4.FundMe.sol\":481:510  uint256 MINIMUM_USD = 50*1e18 */\n  0x00\n  sstore\n    /* \"contracts/4.FundMe.sol\":421:1075  contract FundMe {... */\n  callvalue\n  dup1\n  iszero\n  tag_1\n  jumpi\n  0x00\n  dup1\n  revert\ntag_1:\n  pop\n  dataSize(sub_0)\n  dup1\n  dataOffset(sub_0)\n  0x00\n  codecopy\n  0x00\n  return\nstop\n\nsub_0: assembly {\n        /* \"contracts/4.FundMe.sol\":421:1075  contract FundMe {... */\n      mstore(0x40, 0x80)\n      jumpi(tag_1, lt(calldatasize, 0x04))\n      shr(0xe0, calldataload(0x00))\n      dup1\n      0x3ccfd60b\n      eq\n      tag_2\n      jumpi\n      dup1\n      0x3e47d6f3\n      eq\n      tag_3\n      jumpi\n      dup1\n      0xb60d4288\n      eq\n      tag_4\n      jumpi\n      dup1\n      0xdc0d3dff\n      eq\n      tag_5\n      jumpi\n    tag_1:\n      0x00\n      dup1\n      revert\n        /* \"contracts/4.FundMe.sol\":857:1070  function withdraw() public{... */\n    tag_2:\n      callvalue\n      dup1\n      iszero\n      tag_6\n      jumpi\n      0x00\n      dup1\n      revert\n    tag_6:\n      pop\n      tag_7\n      tag_8\n      jump\t// in\n    tag_7:\n      stop\n        /* \"contracts/4.FundMe.sol\":546:600  mapping(address=>uint256) public addressToAmountFunded */\n    tag_3:\n      callvalue\n      dup1\n      iszero\n      tag_9\n      jumpi\n      0x00\n      dup1\n      revert\n    tag_9:\n      pop\n      tag_10\n      0x04\n      dup1\n      calldatasize\n      sub\n      dup2\n      add\n      swap1\n      tag_11\n      swap2\n      swap1\n      tag_12\n      jump\t// in\n    tag_11:\n      tag_13\n      jump\t// in\n    tag_10:\n      mload(0x40)\n      tag_14\n      swap2\n      swap1\n      tag_15\n      jump\t// in\n    tag_14:\n      mload(0x40)\n      dup1\n      swap2\n      sub\n      swap1\n      return\n        /* \"contracts/4.FundMe.sol\":607:833  function fund() public payable{... */\n    tag_4:\n      tag_16\n      tag_17\n      jump\t// in\n    tag_16:\n      stop\n        /* \"contracts/4.FundMe.sol\":516:540  address[] public funders */\n    tag_5:\n      callvalue\n      dup1\n      iszero\n      tag_18\n      jumpi\n      0x00\n      dup1\n      revert\n    tag_18:\n      pop\n      tag_19\n      0x04\n      dup1\n      calldatasize\n      sub\n      dup2\n      add\n      swap1\n      tag_20\n      swap2\n      swap1\n      tag_21\n      jump\t// in\n    tag_20:\n      tag_22\n      jump\t// in\n    tag_19:\n      mload(0x40)\n      tag_23\n      swap2\n      swap1\n      tag_24\n      jump\t// in\n    tag_23:\n      mload(0x40)\n      dup1\n      swap2\n      sub\n      swap1\n      return\n        /* \"contracts/4.FundMe.sol\":857:1070  function withdraw() public{... */\n    tag_8:\n        /* \"contracts/4.FundMe.sol\":896:915  uint256 funderIndex */\n      0x00\n        /* \"contracts/4.FundMe.sol\":892:1066  for(uint256 funderIndex=0; funderIndex < funders.length;funderIndex++){... */\n    tag_26:\n        /* \"contracts/4.FundMe.sol\":933:940  funders */\n      0x01\n        /* \"contracts/4.FundMe.sol\":933:947  funders.length */\n      dup1\n      sload\n      swap1\n      pop\n        /* \"contracts/4.FundMe.sol\":919:930  funderIndex */\n      dup2\n        /* \"contracts/4.FundMe.sol\":919:947  funderIndex < funders.length */\n      lt\n        /* \"contracts/4.FundMe.sol\":892:1066  for(uint256 funderIndex=0; funderIndex < funders.length;funderIndex++){... */\n      iszero\n      tag_27\n      jumpi\n        /* \"contracts/4.FundMe.sol\":973:987  address funder */\n      0x00\n        /* \"contracts/4.FundMe.sol\":990:997  funders */\n      0x01\n        /* \"contracts/4.FundMe.sol\":998:1009  funderIndex */\n      dup3\n        /* \"contracts/4.FundMe.sol\":990:1010  funders[funderIndex] */\n      dup2\n      sload\n      dup2\n      lt\n      tag_29\n      jumpi\n      tag_30\n      tag_31\n      jump\t// in\n    tag_30:\n    tag_29:\n      swap1\n      0x00\n      mstore\n      keccak256(0x00, 0x20)\n      add\n      0x00\n      swap1\n      sload\n      swap1\n      0x0100\n      exp\n      swap1\n      div\n      0xffffffffffffffffffffffffffffffffffffffff\n      and\n        /* \"contracts/4.FundMe.sol\":973:1010  address funder = funders[funderIndex] */\n      swap1\n      pop\n        /* \"contracts/4.FundMe.sol\":1054:1055  0 */\n      0x00\n        /* \"contracts/4.FundMe.sol\":1022:1043  addressToAmountFunded */\n      0x02\n        /* \"contracts/4.FundMe.sol\":1022:1051  addressToAmountFunded[funder] */\n      0x00\n        /* \"contracts/4.FundMe.sol\":1044:1050  funder */\n      dup4\n        /* \"contracts/4.FundMe.sol\":1022:1051  addressToAmountFunded[funder] */\n      0xffffffffffffffffffffffffffffffffffffffff\n      and\n      0xffffffffffffffffffffffffffffffffffffffff\n      and\n      dup2\n      mstore\n      0x20\n      add\n      swap1\n      dup2\n      mstore\n      0x20\n      add\n      0x00\n      keccak256\n        /* \"contracts/4.FundMe.sol\":1022:1055  addressToAmountFunded[funder]=  0 */\n      dup2\n      swap1\n      sstore\n      pop\n        /* \"contracts/4.FundMe.sol\":962:1066  {... */\n      pop\n        /* \"contracts/4.FundMe.sol\":948:961  funderIndex++ */\n      dup1\n      dup1\n      tag_33\n      swap1\n      tag_34\n      jump\t// in\n    tag_33:\n      swap2\n      pop\n      pop\n        /* \"contracts/4.FundMe.sol\":892:1066  for(uint256 funderIndex=0; funderIndex < funders.length;funderIndex++){... */\n      jump(tag_26)\n    tag_27:\n      pop\n        /* \"contracts/4.FundMe.sol\":857:1070  function withdraw() public{... */\n      jump\t// out\n        /* \"contracts/4.FundMe.sol\":546:600  mapping(address=>uint256) public addressToAmountFunded */\n    tag_13:\n      mstore(0x20, 0x02)\n      dup1\n      0x00\n      mstore\n      keccak256(0x00, 0x40)\n      0x00\n      swap2\n      pop\n      swap1\n      pop\n      sload\n      dup2\n      jump\t// out\n        /* \"contracts/4.FundMe.sol\":607:833  function fund() public payable{... */\n    tag_17:\n        /* \"contracts/4.FundMe.sol\":695:706  MINIMUM_USD */\n      sload(0x00)\n        /* \"contracts/4.FundMe.sol\":660:669  msg.value */\n      callvalue\n        /* \"contracts/4.FundMe.sol\":660:689  msg.value.getConversationRate */\n      linkerSymbol(\"c544637384334a1e4a8012862932a312f2d3de6cd6afb34668c11b05d94972e2\")\n      0x4c03815c\n      swap1\n      swap2\n        /* \"contracts/4.FundMe.sol\":660:691  msg.value.getConversationRate() */\n      mload(0x40)\n      dup3\n      0xffffffff\n      and\n      0xe0\n      shl\n      dup2\n      mstore\n      0x04\n      add\n      tag_36\n      swap2\n      swap1\n      tag_37\n      jump\t// in\n    tag_36:\n      0x20\n      mload(0x40)\n      dup1\n      dup4\n      sub\n      dup2\n      dup7\n      dup1\n      extcodesize\n      iszero\n      dup1\n      iszero\n      tag_38\n      jumpi\n      0x00\n      dup1\n      revert\n    tag_38:\n      pop\n      gas\n      delegatecall\n      iszero\n      dup1\n      iszero\n      tag_40\n      jumpi\n      returndatasize\n      0x00\n      dup1\n      returndatacopy\n      revert(0x00, returndatasize)\n    tag_40:\n      pop\n      pop\n      pop\n      pop\n      mload(0x40)\n      returndatasize\n      not(0x1f)\n      0x1f\n      dup3\n      add\n      and\n      dup3\n      add\n      dup1\n      0x40\n      mstore\n      pop\n      dup2\n      add\n      swap1\n      tag_41\n      swap2\n      swap1\n      tag_42\n      jump\t// in\n    tag_41:\n        /* \"contracts/4.FundMe.sol\":660:706  msg.value.getConversationRate() >= MINIMUM_USD */\n      lt\n      iszero\n        /* \"contracts/4.FundMe.sol\":652:738  require(msg.value.getConversationRate() >= MINIMUM_USD, \"You need to spend more ETH!\") */\n      tag_43\n      jumpi\n      mload(0x40)\n      0x08c379a000000000000000000000000000000000000000000000000000000000\n      dup2\n      mstore\n      0x04\n      add\n      tag_44\n      swap1\n      tag_45\n      jump\t// in\n    tag_44:\n      mload(0x40)\n      dup1\n      swap2\n      sub\n      swap1\n      revert\n    tag_43:\n        /* \"contracts/4.FundMe.sol\":748:755  funders */\n      0x01\n        /* \"contracts/4.FundMe.sol\":761:771  msg.sender */\n      caller\n        /* \"contracts/4.FundMe.sol\":748:772  funders.push(msg.sender) */\n      swap1\n      dup1\n      0x01\n      dup2\n      sload\n      add\n      dup1\n      dup3\n      sstore\n      dup1\n      swap2\n      pop\n      pop\n      0x01\n      swap1\n      sub\n      swap1\n      0x00\n      mstore\n      keccak256(0x00, 0x20)\n      add\n      0x00\n      swap1\n      swap2\n      swap1\n      swap2\n      swap1\n      swap2\n      0x0100\n      exp\n      dup2\n      sload\n      dup2\n      0xffffffffffffffffffffffffffffffffffffffff\n      mul\n      not\n      and\n      swap1\n      dup4\n      0xffffffffffffffffffffffffffffffffffffffff\n      and\n      mul\n      or\n      swap1\n      sstore\n      pop\n        /* \"contracts/4.FundMe.sol\":816:825  msg.value */\n      callvalue\n        /* \"contracts/4.FundMe.sol\":782:803  addressToAmountFunded */\n      0x02\n        /* \"contracts/4.FundMe.sol\":782:815  addressToAmountFunded[msg.sender] */\n      0x00\n        /* \"contracts/4.FundMe.sol\":804:814  msg.sender */\n      caller\n        /* \"contracts/4.FundMe.sol\":782:815  addressToAmountFunded[msg.sender] */\n      0xffffffffffffffffffffffffffffffffffffffff\n      and\n      0xffffffffffffffffffffffffffffffffffffffff\n      and\n      dup2\n      mstore\n      0x20\n      add\n      swap1\n      dup2\n      mstore\n      0x20\n      add\n      0x00\n      keccak256\n        /* \"contracts/4.FundMe.sol\":782:825  addressToAmountFunded[msg.sender]=msg.value */\n      dup2\n      swap1\n      sstore\n      pop\n        /* \"contracts/4.FundMe.sol\":607:833  function fund() public payable{... */\n      jump\t// out\n        /* \"contracts/4.FundMe.sol\":516:540  address[] public funders */\n    tag_22:\n      0x01\n      dup2\n      dup2\n      sload\n      dup2\n      lt\n      tag_47\n      jumpi\n      0x00\n      dup1\n      revert\n    tag_47:\n      swap1\n      0x00\n      mstore\n      keccak256(0x00, 0x20)\n      add\n      0x00\n      swap2\n      pop\n      sload\n      swap1\n      0x0100\n      exp\n      swap1\n      div\n      0xffffffffffffffffffffffffffffffffffffffff\n      and\n      dup2\n      jump\t// out\n        /* \"#utility.yul\":7:146   */\n    tag_50:\n        /* \"#utility.yul\":53:58   */\n      0x00\n        /* \"#utility.yul\":91:97   */\n      dup2\n        /* \"#utility.yul\":78:98   */\n      calldataload\n        /* \"#utility.yul\":69:98   */\n      swap1\n      pop\n        /* \"#utility.yul\":107:140   */\n      tag_52\n        /* \"#utility.yul\":134:139   */\n      dup2\n        /* \"#utility.yul\":107:140   */\n      tag_53\n      jump\t// in\n    tag_52:\n        /* \"#utility.yul\":7:146   */\n      swap3\n      swap2\n      pop\n      pop\n      jump\t// out\n        /* \"#utility.yul\":152:291   */\n    tag_54:\n        /* \"#utility.yul\":198:203   */\n      0x00\n        /* \"#utility.yul\":236:242   */\n      dup2\n        /* \"#utility.yul\":223:243   */\n      calldataload\n        /* \"#utility.yul\":214:243   */\n      swap1\n      pop\n        /* \"#utility.yul\":252:285   */\n      tag_56\n        /* \"#utility.yul\":279:284   */\n      dup2\n        /* \"#utility.yul\":252:285   */\n      tag_57\n      jump\t// in\n    tag_56:\n        /* \"#utility.yul\":152:291   */\n      swap3\n      swap2\n      pop\n      pop\n      jump\t// out\n        /* \"#utility.yul\":297:440   */\n    tag_58:\n        /* \"#utility.yul\":354:359   */\n      0x00\n        /* \"#utility.yul\":385:391   */\n      dup2\n        /* \"#utility.yul\":379:392   */\n      mload\n        /* \"#utility.yul\":370:392   */\n      swap1\n      pop\n        /* \"#utility.yul\":401:434   */\n      tag_60\n        /* \"#utility.yul\":428:433   */\n      dup2\n        /* \"#utility.yul\":401:434   */\n      tag_57\n      jump\t// in\n    tag_60:\n        /* \"#utility.yul\":297:440   */\n      swap3\n      swap2\n      pop\n      pop\n      jump\t// out\n        /* \"#utility.yul\":446:775   */\n    tag_12:\n        /* \"#utility.yul\":505:511   */\n      0x00\n        /* \"#utility.yul\":554:556   */\n      0x20\n        /* \"#utility.yul\":542:551   */\n      dup3\n        /* \"#utility.yul\":533:540   */\n      dup5\n        /* \"#utility.yul\":529:552   */\n      sub\n        /* \"#utility.yul\":525:557   */\n      slt\n        /* \"#utility.yul\":522:641   */\n      iszero\n      tag_62\n      jumpi\n        /* \"#utility.yul\":560:639   */\n      tag_63\n      tag_64\n      jump\t// in\n    tag_63:\n        /* \"#utility.yul\":522:641   */\n    tag_62:\n        /* \"#utility.yul\":680:681   */\n      0x00\n        /* \"#utility.yul\":705:758   */\n      tag_65\n        /* \"#utility.yul\":750:757   */\n      dup5\n        /* \"#utility.yul\":741:747   */\n      dup3\n        /* \"#utility.yul\":730:739   */\n      dup6\n        /* \"#utility.yul\":726:748   */\n      add\n        /* \"#utility.yul\":705:758   */\n      tag_50\n      jump\t// in\n    tag_65:\n        /* \"#utility.yul\":695:758   */\n      swap2\n      pop\n        /* \"#utility.yul\":651:768   */\n      pop\n        /* \"#utility.yul\":446:775   */\n      swap3\n      swap2\n      pop\n      pop\n      jump\t// out\n        /* \"#utility.yul\":781:1110   */\n    tag_21:\n        /* \"#utility.yul\":840:846   */\n      0x00\n        /* \"#utility.yul\":889:891   */\n      0x20\n        /* \"#utility.yul\":877:886   */\n      dup3\n        /* \"#utility.yul\":868:875   */\n      dup5\n        /* \"#utility.yul\":864:887   */\n      sub\n        /* \"#utility.yul\":860:892   */\n      slt\n        /* \"#utility.yul\":857:976   */\n      iszero\n      tag_67\n      jumpi\n        /* \"#utility.yul\":895:974   */\n      tag_68\n      tag_64\n      jump\t// in\n    tag_68:\n        /* \"#utility.yul\":857:976   */\n    tag_67:\n        /* \"#utility.yul\":1015:1016   */\n      0x00\n        /* \"#utility.yul\":1040:1093   */\n      tag_69\n        /* \"#utility.yul\":1085:1092   */\n      dup5\n        /* \"#utility.yul\":1076:1082   */\n      dup3\n        /* \"#utility.yul\":1065:1074   */\n      dup6\n        /* \"#utility.yul\":1061:1083   */\n      add\n        /* \"#utility.yul\":1040:1093   */\n      tag_54\n      jump\t// in\n    tag_69:\n        /* \"#utility.yul\":1030:1093   */\n      swap2\n      pop\n        /* \"#utility.yul\":986:1103   */\n      pop\n        /* \"#utility.yul\":781:1110   */\n      swap3\n      swap2\n      pop\n      pop\n      jump\t// out\n        /* \"#utility.yul\":1116:1467   */\n    tag_42:\n        /* \"#utility.yul\":1186:1192   */\n      0x00\n        /* \"#utility.yul\":1235:1237   */\n      0x20\n        /* \"#utility.yul\":1223:1232   */\n      dup3\n        /* \"#utility.yul\":1214:1221   */\n      dup5\n        /* \"#utility.yul\":1210:1233   */\n      sub\n        /* \"#utility.yul\":1206:1238   */\n      slt\n        /* \"#utility.yul\":1203:1322   */\n      iszero\n      tag_71\n      jumpi\n        /* \"#utility.yul\":1241:1320   */\n      tag_72\n      tag_64\n      jump\t// in\n    tag_72:\n        /* \"#utility.yul\":1203:1322   */\n    tag_71:\n        /* \"#utility.yul\":1361:1362   */\n      0x00\n        /* \"#utility.yul\":1386:1450   */\n      tag_73\n        /* \"#utility.yul\":1442:1449   */\n      dup5\n        /* \"#utility.yul\":1433:1439   */\n      dup3\n        /* \"#utility.yul\":1422:1431   */\n      dup6\n        /* \"#utility.yul\":1418:1440   */\n      add\n        /* \"#utility.yul\":1386:1450   */\n      tag_58\n      jump\t// in\n    tag_73:\n        /* \"#utility.yul\":1376:1450   */\n      swap2\n      pop\n        /* \"#utility.yul\":1332:1460   */\n      pop\n        /* \"#utility.yul\":1116:1467   */\n      swap3\n      swap2\n      pop\n      pop\n      jump\t// out\n        /* \"#utility.yul\":1473:1591   */\n    tag_74:\n        /* \"#utility.yul\":1560:1584   */\n      tag_76\n        /* \"#utility.yul\":1578:1583   */\n      dup2\n        /* \"#utility.yul\":1560:1584   */\n      tag_77\n      jump\t// in\n    tag_76:\n        /* \"#utility.yul\":1555:1558   */\n      dup3\n        /* \"#utility.yul\":1548:1585   */\n      mstore\n        /* \"#utility.yul\":1473:1591   */\n      pop\n      pop\n      jump\t// out\n        /* \"#utility.yul\":1597:1963   */\n    tag_78:\n        /* \"#utility.yul\":1739:1742   */\n      0x00\n        /* \"#utility.yul\":1760:1827   */\n      tag_80\n        /* \"#utility.yul\":1824:1826   */\n      0x1b\n        /* \"#utility.yul\":1819:1822   */\n      dup4\n        /* \"#utility.yul\":1760:1827   */\n      tag_81\n      jump\t// in\n    tag_80:\n        /* \"#utility.yul\":1753:1827   */\n      swap2\n      pop\n        /* \"#utility.yul\":1836:1929   */\n      tag_82\n        /* \"#utility.yul\":1925:1928   */\n      dup3\n        /* \"#utility.yul\":1836:1929   */\n      tag_83\n      jump\t// in\n    tag_82:\n        /* \"#utility.yul\":1954:1956   */\n      0x20\n        /* \"#utility.yul\":1949:1952   */\n      dup3\n        /* \"#utility.yul\":1945:1957   */\n      add\n        /* \"#utility.yul\":1938:1957   */\n      swap1\n      pop\n        /* \"#utility.yul\":1597:1963   */\n      swap2\n      swap1\n      pop\n      jump\t// out\n        /* \"#utility.yul\":1969:2087   */\n    tag_84:\n        /* \"#utility.yul\":2056:2080   */\n      tag_86\n        /* \"#utility.yul\":2074:2079   */\n      dup2\n        /* \"#utility.yul\":2056:2080   */\n      tag_87\n      jump\t// in\n    tag_86:\n        /* \"#utility.yul\":2051:2054   */\n      dup3\n        /* \"#utility.yul\":2044:2081   */\n      mstore\n        /* \"#utility.yul\":1969:2087   */\n      pop\n      pop\n      jump\t// out\n        /* \"#utility.yul\":2093:2219   */\n    tag_88:\n        /* \"#utility.yul\":2188:2212   */\n      tag_90\n        /* \"#utility.yul\":2206:2211   */\n      dup2\n        /* \"#utility.yul\":2188:2212   */\n      tag_87\n      jump\t// in\n    tag_90:\n        /* \"#utility.yul\":2183:2186   */\n      dup3\n        /* \"#utility.yul\":2176:2213   */\n      mstore\n        /* \"#utility.yul\":2093:2219   */\n      pop\n      pop\n      jump\t// out\n        /* \"#utility.yul\":2225:2447   */\n    tag_24:\n        /* \"#utility.yul\":2318:2322   */\n      0x00\n        /* \"#utility.yul\":2356:2358   */\n      0x20\n        /* \"#utility.yul\":2345:2354   */\n      dup3\n        /* \"#utility.yul\":2341:2359   */\n      add\n        /* \"#utility.yul\":2333:2359   */\n      swap1\n      pop\n        /* \"#utility.yul\":2369:2440   */\n      tag_92\n        /* \"#utility.yul\":2437:2438   */\n      0x00\n        /* \"#utility.yul\":2426:2435   */\n      dup4\n        /* \"#utility.yul\":2422:2439   */\n      add\n        /* \"#utility.yul\":2413:2419   */\n      dup5\n        /* \"#utility.yul\":2369:2440   */\n      tag_74\n      jump\t// in\n    tag_92:\n        /* \"#utility.yul\":2225:2447   */\n      swap3\n      swap2\n      pop\n      pop\n      jump\t// out\n        /* \"#utility.yul\":2453:2872   */\n    tag_45:\n        /* \"#utility.yul\":2619:2623   */\n      0x00\n        /* \"#utility.yul\":2657:2659   */\n      0x20\n        /* \"#utility.yul\":2646:2655   */\n      dup3\n        /* \"#utility.yul\":2642:2660   */\n      add\n        /* \"#utility.yul\":2634:2660   */\n      swap1\n      pop\n        /* \"#utility.yul\":2706:2715   */\n      dup2\n        /* \"#utility.yul\":2700:2704   */\n      dup2\n        /* \"#utility.yul\":2696:2716   */\n      sub\n        /* \"#utility.yul\":2692:2693   */\n      0x00\n        /* \"#utility.yul\":2681:2690   */\n      dup4\n        /* \"#utility.yul\":2677:2694   */\n      add\n        /* \"#utility.yul\":2670:2717   */\n      mstore\n        /* \"#utility.yul\":2734:2865   */\n      tag_94\n        /* \"#utility.yul\":2860:2864   */\n      dup2\n        /* \"#utility.yul\":2734:2865   */\n      tag_78\n      jump\t// in\n    tag_94:\n        /* \"#utility.yul\":2726:2865   */\n      swap1\n      pop\n        /* \"#utility.yul\":2453:2872   */\n      swap2\n      swap1\n      pop\n      jump\t// out\n        /* \"#utility.yul\":2878:3116   */\n    tag_37:\n        /* \"#utility.yul\":2979:2983   */\n      0x00\n        /* \"#utility.yul\":3017:3019   */\n      0x20\n        /* \"#utility.yul\":3006:3015   */\n      dup3\n        /* \"#utility.yul\":3002:3020   */\n      add\n        /* \"#utility.yul\":2994:3020   */\n      swap1\n      pop\n        /* \"#utility.yul\":3030:3109   */\n      tag_96\n        /* \"#utility.yul\":3106:3107   */\n      0x00\n        /* \"#utility.yul\":3095:3104   */\n      dup4\n        /* \"#utility.yul\":3091:3108   */\n      add\n        /* \"#utility.yul\":3082:3088   */\n      dup5\n        /* \"#utility.yul\":3030:3109   */\n      tag_88\n      jump\t// in\n    tag_96:\n        /* \"#utility.yul\":2878:3116   */\n      swap3\n      swap2\n      pop\n      pop\n      jump\t// out\n        /* \"#utility.yul\":3122:3344   */\n    tag_15:\n        /* \"#utility.yul\":3215:3219   */\n      0x00\n        /* \"#utility.yul\":3253:3255   */\n      0x20\n        /* \"#utility.yul\":3242:3251   */\n      dup3\n        /* \"#utility.yul\":3238:3256   */\n      add\n        /* \"#utility.yul\":3230:3256   */\n      swap1\n      pop\n        /* \"#utility.yul\":3266:3337   */\n      tag_98\n        /* \"#utility.yul\":3334:3335   */\n      0x00\n        /* \"#utility.yul\":3323:3332   */\n      dup4\n        /* \"#utility.yul\":3319:3336   */\n      add\n        /* \"#utility.yul\":3310:3316   */\n      dup5\n        /* \"#utility.yul\":3266:3337   */\n      tag_84\n      jump\t// in\n    tag_98:\n        /* \"#utility.yul\":3122:3344   */\n      swap3\n      swap2\n      pop\n      pop\n      jump\t// out\n        /* \"#utility.yul\":3431:3600   */\n    tag_81:\n        /* \"#utility.yul\":3515:3526   */\n      0x00\n        /* \"#utility.yul\":3549:3555   */\n      dup3\n        /* \"#utility.yul\":3544:3547   */\n      dup3\n        /* \"#utility.yul\":3537:3556   */\n      mstore\n        /* \"#utility.yul\":3589:3593   */\n      0x20\n        /* \"#utility.yul\":3584:3587   */\n      dup3\n        /* \"#utility.yul\":3580:3594   */\n      add\n        /* \"#utility.yul\":3565:3594   */\n      swap1\n      pop\n        /* \"#utility.yul\":3431:3600   */\n      swap3\n      swap2\n      pop\n      pop\n      jump\t// out\n        /* \"#utility.yul\":3606:3702   */\n    tag_77:\n        /* \"#utility.yul\":3643:3650   */\n      0x00\n        /* \"#utility.yul\":3672:3696   */\n      tag_103\n        /* \"#utility.yul\":3690:3695   */\n      dup3\n        /* \"#utility.yul\":3672:3696   */\n      tag_104\n      jump\t// in\n    tag_103:\n        /* \"#utility.yul\":3661:3696   */\n      swap1\n      pop\n        /* \"#utility.yul\":3606:3702   */\n      swap2\n      swap1\n      pop\n      jump\t// out\n        /* \"#utility.yul\":3708:3834   */\n    tag_104:\n        /* \"#utility.yul\":3745:3752   */\n      0x00\n        /* \"#utility.yul\":3785:3827   */\n      0xffffffffffffffffffffffffffffffffffffffff\n        /* \"#utility.yul\":3778:3783   */\n      dup3\n        /* \"#utility.yul\":3774:3828   */\n      and\n        /* \"#utility.yul\":3763:3828   */\n      swap1\n      pop\n        /* \"#utility.yul\":3708:3834   */\n      swap2\n      swap1\n      pop\n      jump\t// out\n        /* \"#utility.yul\":3840:3917   */\n    tag_87:\n        /* \"#utility.yul\":3877:3884   */\n      0x00\n        /* \"#utility.yul\":3906:3911   */\n      dup2\n        /* \"#utility.yul\":3895:3911   */\n      swap1\n      pop\n        /* \"#utility.yul\":3840:3917   */\n      swap2\n      swap1\n      pop\n      jump\t// out\n        /* \"#utility.yul\":3923:4156   */\n    tag_34:\n        /* \"#utility.yul\":3962:3965   */\n      0x00\n        /* \"#utility.yul\":3985:4009   */\n      tag_108\n        /* \"#utility.yul\":4003:4008   */\n      dup3\n        /* \"#utility.yul\":3985:4009   */\n      tag_87\n      jump\t// in\n    tag_108:\n        /* \"#utility.yul\":3976:4009   */\n      swap2\n      pop\n        /* \"#utility.yul\":4031:4097   */\n      0xffffffffffffffffffffffffffffffffffffffffffffffffffffffffffffffff\n        /* \"#utility.yul\":4024:4029   */\n      dup3\n        /* \"#utility.yul\":4021:4098   */\n      eq\n        /* \"#utility.yul\":4018:4121   */\n      iszero\n      tag_109\n      jumpi\n        /* \"#utility.yul\":4101:4119   */\n      tag_110\n      tag_111\n      jump\t// in\n    tag_110:\n        /* \"#utility.yul\":4018:4121   */\n    tag_109:\n        /* \"#utility.yul\":4148:4149   */\n      0x01\n        /* \"#utility.yul\":4141:4146   */\n      dup3\n        /* \"#utility.yul\":4137:4150   */\n      add\n        /* \"#utility.yul\":4130:4150   */\n      swap1\n      pop\n        /* \"#utility.yul\":3923:4156   */\n      swap2\n      swap1\n      pop\n      jump\t// out\n        /* \"#utility.yul\":4162:4342   */\n    tag_111:\n        /* \"#utility.yul\":4210:4287   */\n      0x4e487b7100000000000000000000000000000000000000000000000000000000\n        /* \"#utility.yul\":4207:4208   */\n      0x00\n        /* \"#utility.yul\":4200:4288   */\n      mstore\n        /* \"#utility.yul\":4307:4311   */\n      0x11\n        /* \"#utility.yul\":4304:4305   */\n      0x04\n        /* \"#utility.yul\":4297:4312   */\n      mstore\n        /* \"#utility.yul\":4331:4335   */\n      0x24\n        /* \"#utility.yul\":4328:4329   */\n      0x00\n        /* \"#utility.yul\":4321:4336   */\n      revert\n        /* \"#utility.yul\":4348:4528   */\n    tag_31:\n        /* \"#utility.yul\":4396:4473   */\n      0x4e487b7100000000000000000000000000000000000000000000000000000000\n        /* \"#utility.yul\":4393:4394   */\n      0x00\n        /* \"#utility.yul\":4386:4474   */\n      mstore\n        /* \"#utility.yul\":4493:4497   */\n      0x32\n        /* \"#utility.yul\":4490:4491   */\n      0x04\n        /* \"#utility.yul\":4483:4498   */\n      mstore\n        /* \"#utility.yul\":4517:4521   */\n      0x24\n        /* \"#utility.yul\":4514:4515   */\n      0x00\n        /* \"#utility.yul\":4507:4522   */\n      revert\n        /* \"#utility.yul\":4657:4774   */\n    tag_64:\n        /* \"#utility.yul\":4766:4767   */\n      0x00\n        /* \"#utility.yul\":4763:4764   */\n      dup1\n        /* \"#utility.yul\":4756:4768   */\n      revert\n        /* \"#utility.yul\":4780:4957   */\n    tag_83:\n        /* \"#utility.yul\":4920:4949   */\n      0x596f75206e65656420746f207370656e64206d6f726520455448210000000000\n        /* \"#utility.yul\":4916:4917   */\n      0x00\n        /* \"#utility.yul\":4908:4914   */\n      dup3\n        /* \"#utility.yul\":4904:4918   */\n      add\n        /* \"#utility.yul\":4897:4950   */\n      mstore\n        /* \"#utility.yul\":4780:4957   */\n      pop\n      jump\t// out\n        /* \"#utility.yul\":4963:5085   */\n    tag_53:\n        /* \"#utility.yul\":5036:5060   */\n      tag_119\n        /* \"#utility.yul\":5054:5059   */\n      dup2\n        /* \"#utility.yul\":5036:5060   */\n      tag_77\n      jump\t// in\n    tag_119:\n        /* \"#utility.yul\":5029:5034   */\n      dup2\n        /* \"#utility.yul\":5026:5061   */\n      eq\n        /* \"#utility.yul\":5016:5079   */\n      tag_120\n      jumpi\n        /* \"#utility.yul\":5075:5076   */\n      0x00\n        /* \"#utility.yul\":5072:5073   */\n      dup1\n        /* \"#utility.yul\":5065:5077   */\n      revert\n        /* \"#utility.yul\":5016:5079   */\n    tag_120:\n        /* \"#utility.yul\":4963:5085   */\n      pop\n      jump\t// out\n        /* \"#utility.yul\":5091:5213   */\n    tag_57:\n        /* \"#utility.yul\":5164:5188   */\n      tag_122\n        /* \"#utility.yul\":5182:5187   */\n      dup2\n        /* \"#utility.yul\":5164:5188   */\n      tag_87\n      jump\t// in\n    tag_122:\n        /* \"#utility.yul\":5157:5162   */\n      dup2\n        /* \"#utility.yul\":5154:5189   */\n      eq\n        /* \"#utility.yul\":5144:5207   */\n      tag_123\n      jumpi\n        /* \"#utility.yul\":5203:5204   */\n      0x00\n        /* \"#utility.yul\":5200:5201   */\n      dup1\n        /* \"#utility.yul\":5193:5205   */\n      revert\n        /* \"#utility.yul\":5144:5207   */\n    tag_123:\n        /* \"#utility.yul\":5091:5213   */\n      pop\n      jump\t// out\n\n    auxdata: 0xa264697066735822122056862241592f9e5f837e44204727c68e3b5068828250dc701178447d647c353764736f6c63430008070033\n}\n",
				"bytecode": {
					"linkReferences": {
						"contracts/5.PriceConverter.sol": {
							"PriceConverter": [
								{
									"length": 20,
									"start": 473
								}
							]
						}
					},
					"object": "60806040526802b5e3af16b188000060005534801561001d57600080fd5b506106688061002d6000396000f3fe60806040526004361061003f5760003560e01c80633ccfd60b146100445780633e47d6f31461005b578063b60d428814610098578063dc0d3dff146100a2575b600080fd5b34801561005057600080fd5b506100596100df565b005b34801561006757600080fd5b50610082600480360381019061007d919061039a565b61018e565b60405161008f91906104c7565b60405180910390f35b6100a06101a6565b005b3480156100ae57600080fd5b506100c960048036038101906100c491906103c7565b61031c565b6040516100d69190610471565b60405180910390f35b60005b60018054905081101561018b57600060018281548110610105576101046105a7565b5b9060005260206000200160009054906101000a900473ffffffffffffffffffffffffffffffffffffffff1690506000600260008373ffffffffffffffffffffffffffffffffffffffff1673ffffffffffffffffffffffffffffffffffffffff168152602001908152602001600020819055505080806101839061052f565b9150506100e2565b50565b60026020528060005260406000206000915090505481565b6000543473__$c544637384334a1e4a8012862932a312f2$__634c03815c90916040518263ffffffff1660e01b81526004016101e291906104ac565b60206040518083038186803b1580156101fa57600080fd5b505af415801561020e573d6000803e3d6000fd5b505050506040513d601f19601f8201168201806040525081019061023291906103f4565b1015610273576040517f08c379a000000000000000000000000000000000000000000000000000000000815260040161026a9061048c565b60405180910390fd5b6001339080600181540180825580915050600190039060005260206000200160009091909190916101000a81548173ffffffffffffffffffffffffffffffffffffffff021916908373ffffffffffffffffffffffffffffffffffffffff16021790555034600260003373ffffffffffffffffffffffffffffffffffffffff1673ffffffffffffffffffffffffffffffffffffffff16815260200190815260200160002081905550565b6001818154811061032c57600080fd5b906000526020600020016000915054906101000a900473ffffffffffffffffffffffffffffffffffffffff1681565b60008135905061036a81610604565b92915050565b60008135905061037f8161061b565b92915050565b6000815190506103948161061b565b92915050565b6000602082840312156103b0576103af6105d6565b5b60006103be8482850161035b565b91505092915050565b6000602082840312156103dd576103dc6105d6565b5b60006103eb84828501610370565b91505092915050565b60006020828403121561040a576104096105d6565b5b600061041884828501610385565b91505092915050565b61042a816104f3565b82525050565b600061043d601b836104e2565b9150610448826105db565b602082019050919050565b61045c81610525565b82525050565b61046b81610525565b82525050565b60006020820190506104866000830184610421565b92915050565b600060208201905081810360008301526104a581610430565b9050919050565b60006020820190506104c16000830184610462565b92915050565b60006020820190506104dc6000830184610453565b92915050565b600082825260208201905092915050565b60006104fe82610505565b9050919050565b600073ffffffffffffffffffffffffffffffffffffffff82169050919050565b6000819050919050565b600061053a82610525565b91507fffffffffffffffffffffffffffffffffffffffffffffffffffffffffffffffff82141561056d5761056c610578565b5b600182019050919050565b7f4e487b7100000000000000000000000000000000000000000000000000000000600052601160045260246000fd5b7f4e487b7100000000000000000000000000000000000000000000000000000000600052603260045260246000fd5b600080fd5b7f596f75206e65656420746f207370656e64206d6f726520455448210000000000600082015250565b61060d816104f3565b811461061857600080fd5b50565b61062481610525565b811461062f57600080fd5b5056fea264697066735822122056862241592f9e5f837e44204727c68e3b5068828250dc701178447d647c353764736f6c63430008070033",
					"opcodes": "PUSH1 0x80 PUSH1 0x40 MSTORE PUSH9 0x2B5E3AF16B1880000 PUSH1 0x0 SSTORE CALLVALUE DUP1 ISZERO PUSH2 0x1D JUMPI PUSH1 0x0 DUP1 REVERT JUMPDEST POP PUSH2 0x668 DUP1 PUSH2 0x2D PUSH1 0x0 CODECOPY PUSH1 0x0 RETURN INVALID PUSH1 0x80 PUSH1 0x40 MSTORE PUSH1 0x4 CALLDATASIZE LT PUSH2 0x3F JUMPI PUSH1 0x0 CALLDATALOAD PUSH1 0xE0 SHR DUP1 PUSH4 0x3CCFD60B EQ PUSH2 0x44 JUMPI DUP1 PUSH4 0x3E47D6F3 EQ PUSH2 0x5B JUMPI DUP1 PUSH4 0xB60D4288 EQ PUSH2 0x98 JUMPI DUP1 PUSH4 0xDC0D3DFF EQ PUSH2 0xA2 JUMPI JUMPDEST PUSH1 0x0 DUP1 REVERT JUMPDEST CALLVALUE DUP1 ISZERO PUSH2 0x50 JUMPI PUSH1 0x0 DUP1 REVERT JUMPDEST POP PUSH2 0x59 PUSH2 0xDF JUMP JUMPDEST STOP JUMPDEST CALLVALUE DUP1 ISZERO PUSH2 0x67 JUMPI PUSH1 0x0 DUP1 REVERT JUMPDEST POP PUSH2 0x82 PUSH1 0x4 DUP1 CALLDATASIZE SUB DUP2 ADD SWAP1 PUSH2 0x7D SWAP2 SWAP1 PUSH2 0x39A JUMP JUMPDEST PUSH2 0x18E JUMP JUMPDEST PUSH1 0x40 MLOAD PUSH2 0x8F SWAP2 SWAP1 PUSH2 0x4C7 JUMP JUMPDEST PUSH1 0x40 MLOAD DUP1 SWAP2 SUB SWAP1 RETURN JUMPDEST PUSH2 0xA0 PUSH2 0x1A6 JUMP JUMPDEST STOP JUMPDEST CALLVALUE DUP1 ISZERO PUSH2 0xAE JUMPI PUSH1 0x0 DUP1 REVERT JUMPDEST POP PUSH2 0xC9 PUSH1 0x4 DUP1 CALLDATASIZE SUB DUP2 ADD SWAP1 PUSH2 0xC4 SWAP2 SWAP1 PUSH2 0x3C7 JUMP JUMPDEST PUSH2 0x31C JUMP JUMPDEST PUSH1 0x40 MLOAD PUSH2 0xD6 SWAP2 SWAP1 PUSH2 0x471 JUMP JUMPDEST PUSH1 0x40 MLOAD DUP1 SWAP2 SUB SWAP1 RETURN JUMPDEST PUSH1 0x0 JUMPDEST PUSH1 0x1 DUP1 SLOAD SWAP1 POP DUP2 LT ISZERO PUSH2 0x18B JUMPI PUSH1 0x0 PUSH1 0x1 DUP3 DUP2 SLOAD DUP2 LT PUSH2 0x105 JUMPI PUSH2 0x104 PUSH2 0x5A7 JUMP JUMPDEST JUMPDEST SWAP1 PUSH1 0x0 MSTORE PUSH1 0x20 PUSH1 0x0 KECCAK256 ADD PUSH1 0x0 SWAP1 SLOAD SWAP1 PUSH2 0x100 EXP SWAP1 DIV PUSH20 0xFFFFFFFFFFFFFFFFFFFFFFFFFFFFFFFFFFFFFFFF AND SWAP1 POP PUSH1 0x0 PUSH1 0x2 PUSH1 0x0 DUP4 PUSH20 0xFFFFFFFFFFFFFFFFFFFFFFFFFFFFFFFFFFFFFFFF AND PUSH20 0xFFFFFFFFFFFFFFFFFFFFFFFFFFFFFFFFFFFFFFFF AND DUP2 MSTORE PUSH1 0x20 ADD SWAP1 DUP2 MSTORE PUSH1 0x20 ADD PUSH1 0x0 KECCAK256 DUP2 SWAP1 SSTORE POP POP DUP1 DUP1 PUSH2 0x183 SWAP1 PUSH2 0x52F JUMP JUMPDEST SWAP2 POP POP PUSH2 0xE2 JUMP JUMPDEST POP JUMP JUMPDEST PUSH1 0x2 PUSH1 0x20 MSTORE DUP1 PUSH1 0x0 MSTORE PUSH1 0x40 PUSH1 0x0 KECCAK256 PUSH1 0x0 SWAP2 POP SWAP1 POP SLOAD DUP2 JUMP JUMPDEST PUSH1 0x0 SLOAD CALLVALUE PUSH20 0x0 PUSH4 0x4C03815C SWAP1 SWAP2 PUSH1 0x40 MLOAD DUP3 PUSH4 0xFFFFFFFF AND PUSH1 0xE0 SHL DUP2 MSTORE PUSH1 0x4 ADD PUSH2 0x1E2 SWAP2 SWAP1 PUSH2 0x4AC JUMP JUMPDEST PUSH1 0x20 PUSH1 0x40 MLOAD DUP1 DUP4 SUB DUP2 DUP7 DUP1 EXTCODESIZE ISZERO DUP1 ISZERO PUSH2 0x1FA JUMPI PUSH1 0x0 DUP1 REVERT JUMPDEST POP GAS DELEGATECALL ISZERO DUP1 ISZERO PUSH2 0x20E JUMPI RETURNDATASIZE PUSH1 0x0 DUP1 RETURNDATACOPY RETURNDATASIZE PUSH1 0x0 REVERT JUMPDEST POP POP POP POP PUSH1 0x40 MLOAD RETURNDATASIZE PUSH1 0x1F NOT PUSH1 0x1F DUP3 ADD AND DUP3 ADD DUP1 PUSH1 0x40 MSTORE POP DUP2 ADD SWAP1 PUSH2 0x232 SWAP2 SWAP1 PUSH2 0x3F4 JUMP JUMPDEST LT ISZERO PUSH2 0x273 JUMPI PUSH1 0x40 MLOAD PUSH32 0x8C379A000000000000000000000000000000000000000000000000000000000 DUP2 MSTORE PUSH1 0x4 ADD PUSH2 0x26A SWAP1 PUSH2 0x48C JUMP JUMPDEST PUSH1 0x40 MLOAD DUP1 SWAP2 SUB SWAP1 REVERT JUMPDEST PUSH1 0x1 CALLER SWAP1 DUP1 PUSH1 0x1 DUP2 SLOAD ADD DUP1 DUP3 SSTORE DUP1 SWAP2 POP POP PUSH1 0x1 SWAP1 SUB SWAP1 PUSH1 0x0 MSTORE PUSH1 0x20 PUSH1 0x0 KECCAK256 ADD PUSH1 0x0 SWAP1 SWAP2 SWAP1 SWAP2 SWAP1 SWAP2 PUSH2 0x100 EXP DUP2 SLOAD DUP2 PUSH20 0xFFFFFFFFFFFFFFFFFFFFFFFFFFFFFFFFFFFFFFFF MUL NOT AND SWAP1 DUP4 PUSH20 0xFFFFFFFFFFFFFFFFFFFFFFFFFFFFFFFFFFFFFFFF AND MUL OR SWAP1 SSTORE POP CALLVALUE PUSH1 0x2 PUSH1 0x0 CALLER PUSH20 0xFFFFFFFFFFFFFFFFFFFFFFFFFFFFFFFFFFFFFFFF AND PUSH20 0xFFFFFFFFFFFFFFFFFFFFFFFFFFFFFFFFFFFFFFFF AND DUP2 MSTORE PUSH1 0x20 ADD SWAP1 DUP2 MSTORE PUSH1 0x20 ADD PUSH1 0x0 KECCAK256 DUP2 SWAP1 SSTORE POP JUMP JUMPDEST PUSH1 0x1 DUP2 DUP2 SLOAD DUP2 LT PUSH2 0x32C JUMPI PUSH1 0x0 DUP1 REVERT JUMPDEST SWAP1 PUSH1 0x0 MSTORE PUSH1 0x20 PUSH1 0x0 KECCAK256 ADD PUSH1 0x0 SWAP2 POP SLOAD SWAP1 PUSH2 0x100 EXP SWAP1 DIV PUSH20 0xFFFFFFFFFFFFFFFFFFFFFFFFFFFFFFFFFFFFFFFF AND DUP2 JUMP JUMPDEST PUSH1 0x0 DUP2 CALLDATALOAD SWAP1 POP PUSH2 0x36A DUP2 PUSH2 0x604 JUMP JUMPDEST SWAP3 SWAP2 POP POP JUMP JUMPDEST PUSH1 0x0 DUP2 CALLDATALOAD SWAP1 POP PUSH2 0x37F DUP2 PUSH2 0x61B JUMP JUMPDEST SWAP3 SWAP2 POP POP JUMP JUMPDEST PUSH1 0x0 DUP2 MLOAD SWAP1 POP PUSH2 0x394 DUP2 PUSH2 0x61B JUMP JUMPDEST SWAP3 SWAP2 POP POP JUMP JUMPDEST PUSH1 0x0 PUSH1 0x20 DUP3 DUP5 SUB SLT ISZERO PUSH2 0x3B0 JUMPI PUSH2 0x3AF PUSH2 0x5D6 JUMP JUMPDEST JUMPDEST PUSH1 0x0 PUSH2 0x3BE DUP5 DUP3 DUP6 ADD PUSH2 0x35B JUMP JUMPDEST SWAP2 POP POP SWAP3 SWAP2 POP POP JUMP JUMPDEST PUSH1 0x0 PUSH1 0x20 DUP3 DUP5 SUB SLT ISZERO PUSH2 0x3DD JUMPI PUSH2 0x3DC PUSH2 0x5D6 JUMP JUMPDEST JUMPDEST PUSH1 0x0 PUSH2 0x3EB DUP5 DUP3 DUP6 ADD PUSH2 0x370 JUMP JUMPDEST SWAP2 POP POP SWAP3 SWAP2 POP POP JUMP JUMPDEST PUSH1 0x0 PUSH1 0x20 DUP3 DUP5 SUB SLT ISZERO PUSH2 0x40A JUMPI PUSH2 0x409 PUSH2 0x5D6 JUMP JUMPDEST JUMPDEST PUSH1 0x0 PUSH2 0x418 DUP5 DUP3 DUP6 ADD PUSH2 0x385 JUMP JUMPDEST SWAP2 POP POP SWAP3 SWAP2 POP POP JUMP JUMPDEST PUSH2 0x42A DUP2 PUSH2 0x4F3 JUMP JUMPDEST DUP3 MSTORE POP POP JUMP JUMPDEST PUSH1 0x0 PUSH2 0x43D PUSH1 0x1B DUP4 PUSH2 0x4E2 JUMP JUMPDEST SWAP2 POP PUSH2 0x448 DUP3 PUSH2 0x5DB JUMP JUMPDEST PUSH1 0x20 DUP3 ADD SWAP1 POP SWAP2 SWAP1 POP JUMP JUMPDEST PUSH2 0x45C DUP2 PUSH2 0x525 JUMP JUMPDEST DUP3 MSTORE POP POP JUMP JUMPDEST PUSH2 0x46B DUP2 PUSH2 0x525 JUMP JUMPDEST DUP3 MSTORE POP POP JUMP JUMPDEST PUSH1 0x0 PUSH1 0x20 DUP3 ADD SWAP1 POP PUSH2 0x486 PUSH1 0x0 DUP4 ADD DUP5 PUSH2 0x421 JUMP JUMPDEST SWAP3 SWAP2 POP POP JUMP JUMPDEST PUSH1 0x0 PUSH1 0x20 DUP3 ADD SWAP1 POP DUP2 DUP2 SUB PUSH1 0x0 DUP4 ADD MSTORE PUSH2 0x4A5 DUP2 PUSH2 0x430 JUMP JUMPDEST SWAP1 POP SWAP2 SWAP1 POP JUMP JUMPDEST PUSH1 0x0 PUSH1 0x20 DUP3 ADD SWAP1 POP PUSH2 0x4C1 PUSH1 0x0 DUP4 ADD DUP5 PUSH2 0x462 JUMP JUMPDEST SWAP3 SWAP2 POP POP JUMP JUMPDEST PUSH1 0x0 PUSH1 0x20 DUP3 ADD SWAP1 POP PUSH2 0x4DC PUSH1 0x0 DUP4 ADD DUP5 PUSH2 0x453 JUMP JUMPDEST SWAP3 SWAP2 POP POP JUMP JUMPDEST PUSH1 0x0 DUP3 DUP3 MSTORE PUSH1 0x20 DUP3 ADD SWAP1 POP SWAP3 SWAP2 POP POP JUMP JUMPDEST PUSH1 0x0 PUSH2 0x4FE DUP3 PUSH2 0x505 JUMP JUMPDEST SWAP1 POP SWAP2 SWAP1 POP JUMP JUMPDEST PUSH1 0x0 PUSH20 0xFFFFFFFFFFFFFFFFFFFFFFFFFFFFFFFFFFFFFFFF DUP3 AND SWAP1 POP SWAP2 SWAP1 POP JUMP JUMPDEST PUSH1 0x0 DUP2 SWAP1 POP SWAP2 SWAP1 POP JUMP JUMPDEST PUSH1 0x0 PUSH2 0x53A DUP3 PUSH2 0x525 JUMP JUMPDEST SWAP2 POP PUSH32 0xFFFFFFFFFFFFFFFFFFFFFFFFFFFFFFFFFFFFFFFFFFFFFFFFFFFFFFFFFFFFFFFF DUP3 EQ ISZERO PUSH2 0x56D JUMPI PUSH2 0x56C PUSH2 0x578 JUMP JUMPDEST JUMPDEST PUSH1 0x1 DUP3 ADD SWAP1 POP SWAP2 SWAP1 POP JUMP JUMPDEST PUSH32 0x4E487B7100000000000000000000000000000000000000000000000000000000 PUSH1 0x0 MSTORE PUSH1 0x11 PUSH1 0x4 MSTORE PUSH1 0x24 PUSH1 0x0 REVERT JUMPDEST PUSH32 0x4E487B7100000000000000000000000000000000000000000000000000000000 PUSH1 0x0 MSTORE PUSH1 0x32 PUSH1 0x4 MSTORE PUSH1 0x24 PUSH1 0x0 REVERT JUMPDEST PUSH1 0x0 DUP1 REVERT JUMPDEST PUSH32 0x596F75206E65656420746F207370656E64206D6F726520455448210000000000 PUSH1 0x0 DUP3 ADD MSTORE POP JUMP JUMPDEST PUSH2 0x60D DUP2 PUSH2 0x4F3 JUMP JUMPDEST DUP2 EQ PUSH2 0x618 JUMPI PUSH1 0x0 DUP1 REVERT JUMPDEST POP JUMP JUMPDEST PUSH2 0x624 DUP2 PUSH2 0x525 JUMP JUMPDEST DUP2 EQ PUSH2 0x62F JUMPI PUSH1 0x0 DUP1 REVERT JUMPDEST POP JUMP INVALID LOG2 PUSH5 0x6970667358 0x22 SLT KECCAK256 JUMP DUP7 0x22 COINBASE MSIZE 0x2F SWAP15 0x5F DUP4 PUSH31 0x44204727C68E3B5068828250DC701178447D647C353764736F6C6343000807 STOP CALLER "
				},
				"gasEstimates": {
					"creation": {
						"codeDepositCost": "328000",
						"executionCost": "22474",
						"totalCost": "350474"
					},
					"external": {
						"addressToAmountFunded(address)": "2814",
						"fund()": "infinite",
						"funders(uint256)": "5000",
						"withdraw()": "infinite"
					}
				},
				"methodIdentifiers": {
					"addressToAmountFunded(address)": "3e47d6f3",
					"fund()": "b60d4288",
					"funders(uint256)": "dc0d3dff",
					"withdraw()": "3ccfd60b"
				}
			},
			"storageLayout": {
				"storage": [
					{
						"astId": 57,
						"contract": "contracts/4.FundMe.sol:FundMe",
						"label": "MINIMUM_USD",
						"offset": 0,
						"slot": "0",
						"type": "t_uint256"
					},
					{
						"astId": 60,
						"contract": "contracts/4.FundMe.sol:FundMe",
						"label": "funders",
						"offset": 0,
						"slot": "1",
						"type": "t_array(t_address)dyn_storage"
					},
					{
						"astId": 64,
						"contract": "contracts/4.FundMe.sol:FundMe",
						"label": "addressToAmountFunded",
						"offset": 0,
						"slot": "2",
						"type": "t_mapping(t_address,t_uint256)"
					}
				],
				"types": {
					"t_address": {
						"encoding": "inplace",
						"label": "address",
						"numberOfBytes": "20"
					},
					"t_array(t_address)dyn_storage": {
						"base": "t_address",
						"encoding": "dynamic_array",
						"label": "address[]",
						"numberOfBytes": "32"
					},
					"t_mapping(t_address,t_uint256)": {
						"encoding": "mapping",
						"key": "t_address",
						"label": "mapping(address => uint256)",
						"numberOfBytes": "32",
						"value": "t_uint256"
					},
					"t_uint256": {
						"encoding": "inplace",
						"label": "uint256",
						"numberOfBytes": "32"
					}
				}
			},
			"userdoc": {
				"kind": "user",
				"methods": {},
				"notice": "Network: Goerli Aggregator: ETH/USD Address: 0xD4a33860578De61DBAbDc8BFdb98FD742fA7028e",
				"version": 1
			}
		}
	}
}