{
	"contracts/4.FundMe.sol": {
		"FundMe": {
			"abi": [
				{
					"inputs": [],
					"name": "fund",
					"outputs": [],
					"stateMutability": "payable",
					"type": "function"
				},
				{
					"inputs": [
						{
							"internalType": "uint256",
							"name": "ethamount",
							"type": "uint256"
						}
					],
					"name": "getConversationRate",
					"outputs": [
						{
							"internalType": "uint256",
							"name": "",
							"type": "uint256"
						}
					],
					"stateMutability": "view",
					"type": "function"
				},
				{
					"inputs": [],
					"name": "getLatestPrice",
					"outputs": [
						{
							"internalType": "uint256",
							"name": "",
							"type": "uint256"
						}
					],
					"stateMutability": "view",
					"type": "function"
				}
			],
			"devdoc": {
				"kind": "dev",
				"methods": {},
				"version": 1
			},
			"evm": {
				"assembly": "    /* \"contracts/4.FundMe.sol\":465:1269  contract FundMe {... */\n  mstore(0x40, 0x80)\n    /* \"contracts/4.FundMe.sol\":510:517  50*1e18 */\n  0x02b5e3af16b1880000\n    /* \"contracts/4.FundMe.sol\":488:517  uint256 MINIMUM_USD = 50*1e18 */\n  0x00\n  sstore\n    /* \"contracts/4.FundMe.sol\":465:1269  contract FundMe {... */\n  callvalue\n  dup1\n  iszero\n  tag_1\n  jumpi\n  0x00\n  dup1\n  revert\ntag_1:\n  pop\n  dataSize(sub_0)\n  dup1\n  dataOffset(sub_0)\n  0x00\n  codecopy\n  0x00\n  return\nstop\n\nsub_0: assembly {\n        /* \"contracts/4.FundMe.sol\":465:1269  contract FundMe {... */\n      mstore(0x40, 0x80)\n      jumpi(tag_1, lt(calldatasize, 0x04))\n      shr(0xe0, calldataload(0x00))\n      dup1\n      0x4c03815c\n      eq\n      tag_2\n      jumpi\n      dup1\n      0x8e15f473\n      eq\n      tag_3\n      jumpi\n      dup1\n      0xb60d4288\n      eq\n      tag_4\n      jumpi\n    tag_1:\n      0x00\n      dup1\n      revert\n        /* \"contracts/4.FundMe.sol\":1029:1265  function getConversationRate(uint256 ethamount) public view returns(uint256){... */\n    tag_2:\n      callvalue\n      dup1\n      iszero\n      tag_5\n      jumpi\n      0x00\n      dup1\n      revert\n    tag_5:\n      pop\n      tag_6\n      0x04\n      dup1\n      calldatasize\n      sub\n      dup2\n      add\n      swap1\n      tag_7\n      swap2\n      swap1\n      tag_8\n      jump\t// in\n    tag_7:\n      tag_9\n      jump\t// in\n    tag_6:\n      mload(0x40)\n      tag_10\n      swap2\n      swap1\n      tag_11\n      jump\t// in\n    tag_10:\n      mload(0x40)\n      dup1\n      swap2\n      sub\n      swap1\n      return\n        /* \"contracts/4.FundMe.sol\":704:971  function getLatestPrice() public view returns(uint256) {... */\n    tag_3:\n      callvalue\n      dup1\n      iszero\n      tag_12\n      jumpi\n      0x00\n      dup1\n      revert\n    tag_12:\n      pop\n      tag_13\n      tag_14\n      jump\t// in\n    tag_13:\n      mload(0x40)\n      tag_15\n      swap2\n      swap1\n      tag_11\n      jump\t// in\n    tag_15:\n      mload(0x40)\n      dup1\n      swap2\n      sub\n      swap1\n      return\n        /* \"contracts/4.FundMe.sol\":527:661  function fund() public payable{... */\n    tag_4:\n      tag_16\n      tag_17\n      jump\t// in\n    tag_16:\n      stop\n        /* \"contracts/4.FundMe.sol\":1029:1265  function getConversationRate(uint256 ethamount) public view returns(uint256){... */\n    tag_9:\n        /* \"contracts/4.FundMe.sol\":1097:1104  uint256 */\n      0x00\n        /* \"contracts/4.FundMe.sol\":1111:1127  uint256 ethPrice */\n      dup1\n        /* \"contracts/4.FundMe.sol\":1130:1146  getLatestPrice() */\n      tag_19\n        /* \"contracts/4.FundMe.sol\":1130:1144  getLatestPrice */\n      tag_14\n        /* \"contracts/4.FundMe.sol\":1130:1146  getLatestPrice() */\n      jump\t// in\n    tag_19:\n        /* \"contracts/4.FundMe.sol\":1111:1146  uint256 ethPrice = getLatestPrice() */\n      swap1\n      pop\n        /* \"contracts/4.FundMe.sol\":1179:1201  uint256 ethamountInUsd */\n      0x00\n        /* \"contracts/4.FundMe.sol\":1229:1233  1e18 */\n      0x0de0b6b3a7640000\n        /* \"contracts/4.FundMe.sol\":1217:1225  ethPrice */\n      dup3\n        /* \"contracts/4.FundMe.sol\":1205:1214  ethamount */\n      dup6\n        /* \"contracts/4.FundMe.sol\":1205:1225  ethamount * ethPrice */\n      tag_20\n      swap2\n      swap1\n      tag_21\n      jump\t// in\n    tag_20:\n        /* \"contracts/4.FundMe.sol\":1204:1233  (ethamount * ethPrice) / 1e18 */\n      tag_22\n      swap2\n      swap1\n      tag_23\n      jump\t// in\n    tag_22:\n        /* \"contracts/4.FundMe.sol\":1179:1233  uint256 ethamountInUsd = (ethamount * ethPrice) / 1e18 */\n      swap1\n      pop\n        /* \"contracts/4.FundMe.sol\":1248:1262  ethamountInUsd */\n      dup1\n        /* \"contracts/4.FundMe.sol\":1240:1262  return  ethamountInUsd */\n      swap3\n      pop\n      pop\n      pop\n        /* \"contracts/4.FundMe.sol\":1029:1265  function getConversationRate(uint256 ethamount) public view returns(uint256){... */\n      swap2\n      swap1\n      pop\n      jump\t// out\n        /* \"contracts/4.FundMe.sol\":704:971  function getLatestPrice() public view returns(uint256) {... */\n    tag_14:\n        /* \"contracts/4.FundMe.sol\":750:757  uint256 */\n      0x00\n        /* \"contracts/4.FundMe.sol\":767:798  AggregatorV3Interface priceFeed */\n      dup1\n        /* \"contracts/4.FundMe.sol\":823:865  0xD4a33860578De61DBAbDc8BFdb98FD742fA7028e */\n      0xd4a33860578de61dbabdc8bfdb98fd742fa7028e\n        /* \"contracts/4.FundMe.sol\":767:866  AggregatorV3Interface priceFeed = AggregatorV3Interface(0xD4a33860578De61DBAbDc8BFdb98FD742fA7028e) */\n      swap1\n      pop\n        /* \"contracts/4.FundMe.sol\":880:892  int256 price */\n      0x00\n        /* \"contracts/4.FundMe.sol\":899:908  priceFeed */\n      dup2\n        /* \"contracts/4.FundMe.sol\":899:924  priceFeed.latestRoundData */\n      0xffffffffffffffffffffffffffffffffffffffff\n      and\n      0xfeaf968c\n        /* \"contracts/4.FundMe.sol\":899:926  priceFeed.latestRoundData() */\n      mload(0x40)\n      dup2\n      0xffffffff\n      and\n      0xe0\n      shl\n      dup2\n      mstore\n      0x04\n      add\n      0xa0\n      mload(0x40)\n      dup1\n      dup4\n      sub\n      dup2\n      dup7\n      dup1\n      extcodesize\n      iszero\n      dup1\n      iszero\n      tag_25\n      jumpi\n      0x00\n      dup1\n      revert\n    tag_25:\n      pop\n      gas\n      staticcall\n      iszero\n      dup1\n      iszero\n      tag_27\n      jumpi\n      returndatasize\n      0x00\n      dup1\n      returndatacopy\n      revert(0x00, returndatasize)\n    tag_27:\n      pop\n      pop\n      pop\n      pop\n      mload(0x40)\n      returndatasize\n      not(0x1f)\n      0x1f\n      dup3\n      add\n      and\n      dup3\n      add\n      dup1\n      0x40\n      mstore\n      pop\n      dup2\n      add\n      swap1\n      tag_28\n      swap2\n      swap1\n      tag_29\n      jump\t// in\n    tag_28:\n        /* \"contracts/4.FundMe.sol\":877:926  ( ,int256 price,,,) = priceFeed.latestRoundData() */\n      pop\n      pop\n      pop\n      swap2\n      pop\n      pop\n        /* \"contracts/4.FundMe.sol\":960:964  1e10 */\n      0x02540be400\n        /* \"contracts/4.FundMe.sol\":952:957  price */\n      dup2\n        /* \"contracts/4.FundMe.sol\":952:964  price * 1e10 */\n      tag_30\n      swap2\n      swap1\n      tag_31\n      jump\t// in\n    tag_30:\n        /* \"contracts/4.FundMe.sol\":937:965  return uint256(price * 1e10) */\n      swap3\n      pop\n      pop\n      pop\n        /* \"contracts/4.FundMe.sol\":704:971  function getLatestPrice() public view returns(uint256) {... */\n      swap1\n      jump\t// out\n        /* \"contracts/4.FundMe.sol\":527:661  function fund() public payable{... */\n    tag_17:\n        /* \"contracts/4.FundMe.sol\":610:621  MINIMUM_USD */\n      sload(0x00)\n        /* \"contracts/4.FundMe.sol\":576:606  getConversationRate(msg.value) */\n      tag_33\n        /* \"contracts/4.FundMe.sol\":596:605  msg.value */\n      callvalue\n        /* \"contracts/4.FundMe.sol\":576:595  getConversationRate */\n      tag_9\n        /* \"contracts/4.FundMe.sol\":576:606  getConversationRate(msg.value) */\n      jump\t// in\n    tag_33:\n        /* \"contracts/4.FundMe.sol\":576:621  getConversationRate(msg.value) >= MINIMUM_USD */\n      lt\n      iszero\n        /* \"contracts/4.FundMe.sol\":568:653  require(getConversationRate(msg.value) >= MINIMUM_USD, \"You need to spend more ETH!\") */\n      tag_34\n      jumpi\n      mload(0x40)\n      0x08c379a000000000000000000000000000000000000000000000000000000000\n      dup2\n      mstore\n      0x04\n      add\n      tag_35\n      swap1\n      tag_36\n      jump\t// in\n    tag_35:\n      mload(0x40)\n      dup1\n      swap2\n      sub\n      swap1\n      revert\n    tag_34:\n        /* \"contracts/4.FundMe.sol\":527:661  function fund() public payable{... */\n      jump\t// out\n        /* \"#utility.yul\":7:148   */\n    tag_38:\n        /* \"#utility.yul\":63:68   */\n      0x00\n        /* \"#utility.yul\":94:100   */\n      dup2\n        /* \"#utility.yul\":88:101   */\n      mload\n        /* \"#utility.yul\":79:101   */\n      swap1\n      pop\n        /* \"#utility.yul\":110:142   */\n      tag_40\n        /* \"#utility.yul\":136:141   */\n      dup2\n        /* \"#utility.yul\":110:142   */\n      tag_41\n      jump\t// in\n    tag_40:\n        /* \"#utility.yul\":7:148   */\n      swap3\n      swap2\n      pop\n      pop\n      jump\t// out\n        /* \"#utility.yul\":154:293   */\n    tag_42:\n        /* \"#utility.yul\":200:205   */\n      0x00\n        /* \"#utility.yul\":238:244   */\n      dup2\n        /* \"#utility.yul\":225:245   */\n      calldataload\n        /* \"#utility.yul\":216:245   */\n      swap1\n      pop\n        /* \"#utility.yul\":254:287   */\n      tag_44\n        /* \"#utility.yul\":281:286   */\n      dup2\n        /* \"#utility.yul\":254:287   */\n      tag_45\n      jump\t// in\n    tag_44:\n        /* \"#utility.yul\":154:293   */\n      swap3\n      swap2\n      pop\n      pop\n      jump\t// out\n        /* \"#utility.yul\":299:442   */\n    tag_46:\n        /* \"#utility.yul\":356:361   */\n      0x00\n        /* \"#utility.yul\":387:393   */\n      dup2\n        /* \"#utility.yul\":381:394   */\n      mload\n        /* \"#utility.yul\":372:394   */\n      swap1\n      pop\n        /* \"#utility.yul\":403:436   */\n      tag_48\n        /* \"#utility.yul\":430:435   */\n      dup2\n        /* \"#utility.yul\":403:436   */\n      tag_45\n      jump\t// in\n    tag_48:\n        /* \"#utility.yul\":299:442   */\n      swap3\n      swap2\n      pop\n      pop\n      jump\t// out\n        /* \"#utility.yul\":448:589   */\n    tag_49:\n        /* \"#utility.yul\":504:509   */\n      0x00\n        /* \"#utility.yul\":535:541   */\n      dup2\n        /* \"#utility.yul\":529:542   */\n      mload\n        /* \"#utility.yul\":520:542   */\n      swap1\n      pop\n        /* \"#utility.yul\":551:583   */\n      tag_51\n        /* \"#utility.yul\":577:582   */\n      dup2\n        /* \"#utility.yul\":551:583   */\n      tag_52\n      jump\t// in\n    tag_51:\n        /* \"#utility.yul\":448:589   */\n      swap3\n      swap2\n      pop\n      pop\n      jump\t// out\n        /* \"#utility.yul\":595:924   */\n    tag_8:\n        /* \"#utility.yul\":654:660   */\n      0x00\n        /* \"#utility.yul\":703:705   */\n      0x20\n        /* \"#utility.yul\":691:700   */\n      dup3\n        /* \"#utility.yul\":682:689   */\n      dup5\n        /* \"#utility.yul\":678:701   */\n      sub\n        /* \"#utility.yul\":674:706   */\n      slt\n        /* \"#utility.yul\":671:790   */\n      iszero\n      tag_54\n      jumpi\n        /* \"#utility.yul\":709:788   */\n      tag_55\n      tag_56\n      jump\t// in\n    tag_55:\n        /* \"#utility.yul\":671:790   */\n    tag_54:\n        /* \"#utility.yul\":829:830   */\n      0x00\n        /* \"#utility.yul\":854:907   */\n      tag_57\n        /* \"#utility.yul\":899:906   */\n      dup5\n        /* \"#utility.yul\":890:896   */\n      dup3\n        /* \"#utility.yul\":879:888   */\n      dup6\n        /* \"#utility.yul\":875:897   */\n      add\n        /* \"#utility.yul\":854:907   */\n      tag_42\n      jump\t// in\n    tag_57:\n        /* \"#utility.yul\":844:907   */\n      swap2\n      pop\n        /* \"#utility.yul\":800:917   */\n      pop\n        /* \"#utility.yul\":595:924   */\n      swap3\n      swap2\n      pop\n      pop\n      jump\t// out\n        /* \"#utility.yul\":930:1901   */\n    tag_29:\n        /* \"#utility.yul\":1033:1039   */\n      0x00\n        /* \"#utility.yul\":1041:1047   */\n      dup1\n        /* \"#utility.yul\":1049:1055   */\n      0x00\n        /* \"#utility.yul\":1057:1063   */\n      dup1\n        /* \"#utility.yul\":1065:1071   */\n      0x00\n        /* \"#utility.yul\":1114:1117   */\n      0xa0\n        /* \"#utility.yul\":1102:1111   */\n      dup7\n        /* \"#utility.yul\":1093:1100   */\n      dup9\n        /* \"#utility.yul\":1089:1112   */\n      sub\n        /* \"#utility.yul\":1085:1118   */\n      slt\n        /* \"#utility.yul\":1082:1202   */\n      iszero\n      tag_59\n      jumpi\n        /* \"#utility.yul\":1121:1200   */\n      tag_60\n      tag_56\n      jump\t// in\n    tag_60:\n        /* \"#utility.yul\":1082:1202   */\n    tag_59:\n        /* \"#utility.yul\":1241:1242   */\n      0x00\n        /* \"#utility.yul\":1266:1329   */\n      tag_61\n        /* \"#utility.yul\":1321:1328   */\n      dup9\n        /* \"#utility.yul\":1312:1318   */\n      dup3\n        /* \"#utility.yul\":1301:1310   */\n      dup10\n        /* \"#utility.yul\":1297:1319   */\n      add\n        /* \"#utility.yul\":1266:1329   */\n      tag_49\n      jump\t// in\n    tag_61:\n        /* \"#utility.yul\":1256:1329   */\n      swap6\n      pop\n        /* \"#utility.yul\":1212:1339   */\n      pop\n        /* \"#utility.yul\":1378:1380   */\n      0x20\n        /* \"#utility.yul\":1404:1467   */\n      tag_62\n        /* \"#utility.yul\":1459:1466   */\n      dup9\n        /* \"#utility.yul\":1450:1456   */\n      dup3\n        /* \"#utility.yul\":1439:1448   */\n      dup10\n        /* \"#utility.yul\":1435:1457   */\n      add\n        /* \"#utility.yul\":1404:1467   */\n      tag_38\n      jump\t// in\n    tag_62:\n        /* \"#utility.yul\":1394:1467   */\n      swap5\n      pop\n        /* \"#utility.yul\":1349:1477   */\n      pop\n        /* \"#utility.yul\":1516:1518   */\n      0x40\n        /* \"#utility.yul\":1542:1606   */\n      tag_63\n        /* \"#utility.yul\":1598:1605   */\n      dup9\n        /* \"#utility.yul\":1589:1595   */\n      dup3\n        /* \"#utility.yul\":1578:1587   */\n      dup10\n        /* \"#utility.yul\":1574:1596   */\n      add\n        /* \"#utility.yul\":1542:1606   */\n      tag_46\n      jump\t// in\n    tag_63:\n        /* \"#utility.yul\":1532:1606   */\n      swap4\n      pop\n        /* \"#utility.yul\":1487:1616   */\n      pop\n        /* \"#utility.yul\":1655:1657   */\n      0x60\n        /* \"#utility.yul\":1681:1745   */\n      tag_64\n        /* \"#utility.yul\":1737:1744   */\n      dup9\n        /* \"#utility.yul\":1728:1734   */\n      dup3\n        /* \"#utility.yul\":1717:1726   */\n      dup10\n        /* \"#utility.yul\":1713:1735   */\n      add\n        /* \"#utility.yul\":1681:1745   */\n      tag_46\n      jump\t// in\n    tag_64:\n        /* \"#utility.yul\":1671:1745   */\n      swap3\n      pop\n        /* \"#utility.yul\":1626:1755   */\n      pop\n        /* \"#utility.yul\":1794:1797   */\n      0x80\n        /* \"#utility.yul\":1821:1884   */\n      tag_65\n        /* \"#utility.yul\":1876:1883   */\n      dup9\n        /* \"#utility.yul\":1867:1873   */\n      dup3\n        /* \"#utility.yul\":1856:1865   */\n      dup10\n        /* \"#utility.yul\":1852:1874   */\n      add\n        /* \"#utility.yul\":1821:1884   */\n      tag_49\n      jump\t// in\n    tag_65:\n        /* \"#utility.yul\":1811:1884   */\n      swap2\n      pop\n        /* \"#utility.yul\":1765:1894   */\n      pop\n        /* \"#utility.yul\":930:1901   */\n      swap3\n      swap6\n      pop\n      swap3\n      swap6\n      swap1\n      swap4\n      pop\n      jump\t// out\n        /* \"#utility.yul\":1907:2273   */\n    tag_66:\n        /* \"#utility.yul\":2049:2052   */\n      0x00\n        /* \"#utility.yul\":2070:2137   */\n      tag_68\n        /* \"#utility.yul\":2134:2136   */\n      0x1b\n        /* \"#utility.yul\":2129:2132   */\n      dup4\n        /* \"#utility.yul\":2070:2137   */\n      tag_69\n      jump\t// in\n    tag_68:\n        /* \"#utility.yul\":2063:2137   */\n      swap2\n      pop\n        /* \"#utility.yul\":2146:2239   */\n      tag_70\n        /* \"#utility.yul\":2235:2238   */\n      dup3\n        /* \"#utility.yul\":2146:2239   */\n      tag_71\n      jump\t// in\n    tag_70:\n        /* \"#utility.yul\":2264:2266   */\n      0x20\n        /* \"#utility.yul\":2259:2262   */\n      dup3\n        /* \"#utility.yul\":2255:2267   */\n      add\n        /* \"#utility.yul\":2248:2267   */\n      swap1\n      pop\n        /* \"#utility.yul\":1907:2273   */\n      swap2\n      swap1\n      pop\n      jump\t// out\n        /* \"#utility.yul\":2279:2397   */\n    tag_72:\n        /* \"#utility.yul\":2366:2390   */\n      tag_74\n        /* \"#utility.yul\":2384:2389   */\n      dup2\n        /* \"#utility.yul\":2366:2390   */\n      tag_75\n      jump\t// in\n    tag_74:\n        /* \"#utility.yul\":2361:2364   */\n      dup3\n        /* \"#utility.yul\":2354:2391   */\n      mstore\n        /* \"#utility.yul\":2279:2397   */\n      pop\n      pop\n      jump\t// out\n        /* \"#utility.yul\":2403:2822   */\n    tag_36:\n        /* \"#utility.yul\":2569:2573   */\n      0x00\n        /* \"#utility.yul\":2607:2609   */\n      0x20\n        /* \"#utility.yul\":2596:2605   */\n      dup3\n        /* \"#utility.yul\":2592:2610   */\n      add\n        /* \"#utility.yul\":2584:2610   */\n      swap1\n      pop\n        /* \"#utility.yul\":2656:2665   */\n      dup2\n        /* \"#utility.yul\":2650:2654   */\n      dup2\n        /* \"#utility.yul\":2646:2666   */\n      sub\n        /* \"#utility.yul\":2642:2643   */\n      0x00\n        /* \"#utility.yul\":2631:2640   */\n      dup4\n        /* \"#utility.yul\":2627:2644   */\n      add\n        /* \"#utility.yul\":2620:2667   */\n      mstore\n        /* \"#utility.yul\":2684:2815   */\n      tag_77\n        /* \"#utility.yul\":2810:2814   */\n      dup2\n        /* \"#utility.yul\":2684:2815   */\n      tag_66\n      jump\t// in\n    tag_77:\n        /* \"#utility.yul\":2676:2815   */\n      swap1\n      pop\n        /* \"#utility.yul\":2403:2822   */\n      swap2\n      swap1\n      pop\n      jump\t// out\n        /* \"#utility.yul\":2828:3050   */\n    tag_11:\n        /* \"#utility.yul\":2921:2925   */\n      0x00\n        /* \"#utility.yul\":2959:2961   */\n      0x20\n        /* \"#utility.yul\":2948:2957   */\n      dup3\n        /* \"#utility.yul\":2944:2962   */\n      add\n        /* \"#utility.yul\":2936:2962   */\n      swap1\n      pop\n        /* \"#utility.yul\":2972:3043   */\n      tag_79\n        /* \"#utility.yul\":3040:3041   */\n      0x00\n        /* \"#utility.yul\":3029:3038   */\n      dup4\n        /* \"#utility.yul\":3025:3042   */\n      add\n        /* \"#utility.yul\":3016:3022   */\n      dup5\n        /* \"#utility.yul\":2972:3043   */\n      tag_72\n      jump\t// in\n    tag_79:\n        /* \"#utility.yul\":2828:3050   */\n      swap3\n      swap2\n      pop\n      pop\n      jump\t// out\n        /* \"#utility.yul\":3137:3306   */\n    tag_69:\n        /* \"#utility.yul\":3221:3232   */\n      0x00\n        /* \"#utility.yul\":3255:3261   */\n      dup3\n        /* \"#utility.yul\":3250:3253   */\n      dup3\n        /* \"#utility.yul\":3243:3262   */\n      mstore\n        /* \"#utility.yul\":3295:3299   */\n      0x20\n        /* \"#utility.yul\":3290:3293   */\n      dup3\n        /* \"#utility.yul\":3286:3300   */\n      add\n        /* \"#utility.yul\":3271:3300   */\n      swap1\n      pop\n        /* \"#utility.yul\":3137:3306   */\n      swap3\n      swap2\n      pop\n      pop\n      jump\t// out\n        /* \"#utility.yul\":3312:3497   */\n    tag_23:\n        /* \"#utility.yul\":3352:3353   */\n      0x00\n        /* \"#utility.yul\":3369:3389   */\n      tag_84\n        /* \"#utility.yul\":3387:3388   */\n      dup3\n        /* \"#utility.yul\":3369:3389   */\n      tag_75\n      jump\t// in\n    tag_84:\n        /* \"#utility.yul\":3364:3389   */\n      swap2\n      pop\n        /* \"#utility.yul\":3403:3423   */\n      tag_85\n        /* \"#utility.yul\":3421:3422   */\n      dup4\n        /* \"#utility.yul\":3403:3423   */\n      tag_75\n      jump\t// in\n    tag_85:\n        /* \"#utility.yul\":3398:3423   */\n      swap3\n      pop\n        /* \"#utility.yul\":3442:3443   */\n      dup3\n        /* \"#utility.yul\":3432:3467   */\n      tag_86\n      jumpi\n        /* \"#utility.yul\":3447:3465   */\n      tag_87\n      tag_88\n      jump\t// in\n    tag_87:\n        /* \"#utility.yul\":3432:3467   */\n    tag_86:\n        /* \"#utility.yul\":3489:3490   */\n      dup3\n        /* \"#utility.yul\":3486:3487   */\n      dup3\n        /* \"#utility.yul\":3482:3491   */\n      div\n        /* \"#utility.yul\":3477:3491   */\n      swap1\n      pop\n        /* \"#utility.yul\":3312:3497   */\n      swap3\n      swap2\n      pop\n      pop\n      jump\t// out\n        /* \"#utility.yul\":3503:4494   */\n    tag_31:\n        /* \"#utility.yul\":3542:3549   */\n      0x00\n        /* \"#utility.yul\":3565:3584   */\n      tag_90\n        /* \"#utility.yul\":3582:3583   */\n      dup3\n        /* \"#utility.yul\":3565:3584   */\n      tag_91\n      jump\t// in\n    tag_90:\n        /* \"#utility.yul\":3560:3584   */\n      swap2\n      pop\n        /* \"#utility.yul\":3598:3617   */\n      tag_92\n        /* \"#utility.yul\":3615:3616   */\n      dup4\n        /* \"#utility.yul\":3598:3617   */\n      tag_91\n      jump\t// in\n    tag_92:\n        /* \"#utility.yul\":3593:3617   */\n      swap3\n      pop\n        /* \"#utility.yul\":3799:3800   */\n      dup3\n        /* \"#utility.yul\":3731:3797   */\n      0x7fffffffffffffffffffffffffffffffffffffffffffffffffffffffffffffff\n        /* \"#utility.yul\":3727:3801   */\n      div\n        /* \"#utility.yul\":3724:3725   */\n      dup3\n        /* \"#utility.yul\":3721:3802   */\n      gt\n        /* \"#utility.yul\":3716:3717   */\n      0x00\n        /* \"#utility.yul\":3713:3714   */\n      dup5\n        /* \"#utility.yul\":3709:3718   */\n      sgt\n        /* \"#utility.yul\":3705:3706   */\n      0x00\n        /* \"#utility.yul\":3702:3703   */\n      dup5\n        /* \"#utility.yul\":3698:3707   */\n      sgt\n        /* \"#utility.yul\":3694:3719   */\n      and\n        /* \"#utility.yul\":3690:3803   */\n      and\n        /* \"#utility.yul\":3687:3826   */\n      iszero\n      tag_93\n      jumpi\n        /* \"#utility.yul\":3806:3824   */\n      tag_94\n      tag_95\n      jump\t// in\n    tag_94:\n        /* \"#utility.yul\":3687:3826   */\n    tag_93:\n        /* \"#utility.yul\":4010:4011   */\n      dup2\n        /* \"#utility.yul\":3942:4008   */\n      0x8000000000000000000000000000000000000000000000000000000000000000\n        /* \"#utility.yul\":3937:4012   */\n      sdiv\n        /* \"#utility.yul\":3934:3935   */\n      dup4\n        /* \"#utility.yul\":3930:4013   */\n      slt\n        /* \"#utility.yul\":3925:3926   */\n      0x00\n        /* \"#utility.yul\":3922:3923   */\n      dup5\n        /* \"#utility.yul\":3918:3927   */\n      slt\n        /* \"#utility.yul\":3914:3915   */\n      0x00\n        /* \"#utility.yul\":3911:3912   */\n      dup5\n        /* \"#utility.yul\":3907:3916   */\n      sgt\n        /* \"#utility.yul\":3903:3928   */\n      and\n        /* \"#utility.yul\":3899:4014   */\n      and\n        /* \"#utility.yul\":3896:4037   */\n      iszero\n      tag_96\n      jumpi\n        /* \"#utility.yul\":4017:4035   */\n      tag_97\n      tag_95\n      jump\t// in\n    tag_97:\n        /* \"#utility.yul\":3896:4037   */\n    tag_96:\n        /* \"#utility.yul\":4221:4222   */\n      dup3\n        /* \"#utility.yul\":4153:4219   */\n      0x8000000000000000000000000000000000000000000000000000000000000000\n        /* \"#utility.yul\":4148:4223   */\n      sdiv\n        /* \"#utility.yul\":4145:4146   */\n      dup3\n        /* \"#utility.yul\":4141:4224   */\n      slt\n        /* \"#utility.yul\":4136:4137   */\n      0x00\n        /* \"#utility.yul\":4133:4134   */\n      dup5\n        /* \"#utility.yul\":4129:4138   */\n      sgt\n        /* \"#utility.yul\":4125:4126   */\n      0x00\n        /* \"#utility.yul\":4122:4123   */\n      dup5\n        /* \"#utility.yul\":4118:4127   */\n      slt\n        /* \"#utility.yul\":4114:4139   */\n      and\n        /* \"#utility.yul\":4110:4225   */\n      and\n        /* \"#utility.yul\":4107:4248   */\n      iszero\n      tag_98\n      jumpi\n        /* \"#utility.yul\":4228:4246   */\n      tag_99\n      tag_95\n      jump\t// in\n    tag_99:\n        /* \"#utility.yul\":4107:4248   */\n    tag_98:\n        /* \"#utility.yul\":4431:4432   */\n      dup3\n        /* \"#utility.yul\":4363:4429   */\n      0x7fffffffffffffffffffffffffffffffffffffffffffffffffffffffffffffff\n        /* \"#utility.yul\":4358:4433   */\n      sdiv\n        /* \"#utility.yul\":4355:4356   */\n      dup3\n        /* \"#utility.yul\":4351:4434   */\n      slt\n        /* \"#utility.yul\":4346:4347   */\n      0x00\n        /* \"#utility.yul\":4343:4344   */\n      dup5\n        /* \"#utility.yul\":4339:4348   */\n      slt\n        /* \"#utility.yul\":4335:4336   */\n      0x00\n        /* \"#utility.yul\":4332:4333   */\n      dup5\n        /* \"#utility.yul\":4328:4337   */\n      slt\n        /* \"#utility.yul\":4324:4349   */\n      and\n        /* \"#utility.yul\":4320:4435   */\n      and\n        /* \"#utility.yul\":4317:4458   */\n      iszero\n      tag_100\n      jumpi\n        /* \"#utility.yul\":4438:4456   */\n      tag_101\n      tag_95\n      jump\t// in\n    tag_101:\n        /* \"#utility.yul\":4317:4458   */\n    tag_100:\n        /* \"#utility.yul\":4486:4487   */\n      dup3\n        /* \"#utility.yul\":4483:4484   */\n      dup3\n        /* \"#utility.yul\":4479:4488   */\n      mul\n        /* \"#utility.yul\":4468:4488   */\n      swap1\n      pop\n        /* \"#utility.yul\":3503:4494   */\n      swap3\n      swap2\n      pop\n      pop\n      jump\t// out\n        /* \"#utility.yul\":4500:4848   */\n    tag_21:\n        /* \"#utility.yul\":4540:4547   */\n      0x00\n        /* \"#utility.yul\":4563:4583   */\n      tag_103\n        /* \"#utility.yul\":4581:4582   */\n      dup3\n        /* \"#utility.yul\":4563:4583   */\n      tag_75\n      jump\t// in\n    tag_103:\n        /* \"#utility.yul\":4558:4583   */\n      swap2\n      pop\n        /* \"#utility.yul\":4597:4617   */\n      tag_104\n        /* \"#utility.yul\":4615:4616   */\n      dup4\n        /* \"#utility.yul\":4597:4617   */\n      tag_75\n      jump\t// in\n    tag_104:\n        /* \"#utility.yul\":4592:4617   */\n      swap3\n      pop\n        /* \"#utility.yul\":4785:4786   */\n      dup2\n        /* \"#utility.yul\":4717:4783   */\n      0xffffffffffffffffffffffffffffffffffffffffffffffffffffffffffffffff\n        /* \"#utility.yul\":4713:4787   */\n      div\n        /* \"#utility.yul\":4710:4711   */\n      dup4\n        /* \"#utility.yul\":4707:4788   */\n      gt\n        /* \"#utility.yul\":4702:4703   */\n      dup3\n        /* \"#utility.yul\":4695:4704   */\n      iszero\n        /* \"#utility.yul\":4688:4705   */\n      iszero\n        /* \"#utility.yul\":4684:4789   */\n      and\n        /* \"#utility.yul\":4681:4812   */\n      iszero\n      tag_105\n      jumpi\n        /* \"#utility.yul\":4792:4810   */\n      tag_106\n      tag_95\n      jump\t// in\n    tag_106:\n        /* \"#utility.yul\":4681:4812   */\n    tag_105:\n        /* \"#utility.yul\":4840:4841   */\n      dup3\n        /* \"#utility.yul\":4837:4838   */\n      dup3\n        /* \"#utility.yul\":4833:4842   */\n      mul\n        /* \"#utility.yul\":4822:4842   */\n      swap1\n      pop\n        /* \"#utility.yul\":4500:4848   */\n      swap3\n      swap2\n      pop\n      pop\n      jump\t// out\n        /* \"#utility.yul\":4854:4930   */\n    tag_91:\n        /* \"#utility.yul\":4890:4897   */\n      0x00\n        /* \"#utility.yul\":4919:4924   */\n      dup2\n        /* \"#utility.yul\":4908:4924   */\n      swap1\n      pop\n        /* \"#utility.yul\":4854:4930   */\n      swap2\n      swap1\n      pop\n      jump\t// out\n        /* \"#utility.yul\":4936:5013   */\n    tag_75:\n        /* \"#utility.yul\":4973:4980   */\n      0x00\n        /* \"#utility.yul\":5002:5007   */\n      dup2\n        /* \"#utility.yul\":4991:5007   */\n      swap1\n      pop\n        /* \"#utility.yul\":4936:5013   */\n      swap2\n      swap1\n      pop\n      jump\t// out\n        /* \"#utility.yul\":5019:5124   */\n    tag_109:\n        /* \"#utility.yul\":5055:5062   */\n      0x00\n        /* \"#utility.yul\":5095:5117   */\n      0xffffffffffffffffffff\n        /* \"#utility.yul\":5088:5093   */\n      dup3\n        /* \"#utility.yul\":5084:5118   */\n      and\n        /* \"#utility.yul\":5073:5118   */\n      swap1\n      pop\n        /* \"#utility.yul\":5019:5124   */\n      swap2\n      swap1\n      pop\n      jump\t// out\n        /* \"#utility.yul\":5130:5310   */\n    tag_95:\n        /* \"#utility.yul\":5178:5255   */\n      0x4e487b7100000000000000000000000000000000000000000000000000000000\n        /* \"#utility.yul\":5175:5176   */\n      0x00\n        /* \"#utility.yul\":5168:5256   */\n      mstore\n        /* \"#utility.yul\":5275:5279   */\n      0x11\n        /* \"#utility.yul\":5272:5273   */\n      0x04\n        /* \"#utility.yul\":5265:5280   */\n      mstore\n        /* \"#utility.yul\":5299:5303   */\n      0x24\n        /* \"#utility.yul\":5296:5297   */\n      0x00\n        /* \"#utility.yul\":5289:5304   */\n      revert\n        /* \"#utility.yul\":5316:5496   */\n    tag_88:\n        /* \"#utility.yul\":5364:5441   */\n      0x4e487b7100000000000000000000000000000000000000000000000000000000\n        /* \"#utility.yul\":5361:5362   */\n      0x00\n        /* \"#utility.yul\":5354:5442   */\n      mstore\n        /* \"#utility.yul\":5461:5465   */\n      0x12\n        /* \"#utility.yul\":5458:5459   */\n      0x04\n        /* \"#utility.yul\":5451:5466   */\n      mstore\n        /* \"#utility.yul\":5485:5489   */\n      0x24\n        /* \"#utility.yul\":5482:5483   */\n      0x00\n        /* \"#utility.yul\":5475:5490   */\n      revert\n        /* \"#utility.yul\":5625:5742   */\n    tag_56:\n        /* \"#utility.yul\":5734:5735   */\n      0x00\n        /* \"#utility.yul\":5731:5732   */\n      dup1\n        /* \"#utility.yul\":5724:5736   */\n      revert\n        /* \"#utility.yul\":5748:5925   */\n    tag_71:\n        /* \"#utility.yul\":5888:5917   */\n      0x596f75206e65656420746f207370656e64206d6f726520455448210000000000\n        /* \"#utility.yul\":5884:5885   */\n      0x00\n        /* \"#utility.yul\":5876:5882   */\n      dup3\n        /* \"#utility.yul\":5872:5886   */\n      add\n        /* \"#utility.yul\":5865:5918   */\n      mstore\n        /* \"#utility.yul\":5748:5925   */\n      pop\n      jump\t// out\n        /* \"#utility.yul\":5931:6051   */\n    tag_41:\n        /* \"#utility.yul\":6003:6026   */\n      tag_118\n        /* \"#utility.yul\":6020:6025   */\n      dup2\n        /* \"#utility.yul\":6003:6026   */\n      tag_91\n      jump\t// in\n    tag_118:\n        /* \"#utility.yul\":5996:6001   */\n      dup2\n        /* \"#utility.yul\":5993:6027   */\n      eq\n        /* \"#utility.yul\":5983:6045   */\n      tag_119\n      jumpi\n        /* \"#utility.yul\":6041:6042   */\n      0x00\n        /* \"#utility.yul\":6038:6039   */\n      dup1\n        /* \"#utility.yul\":6031:6043   */\n      revert\n        /* \"#utility.yul\":5983:6045   */\n    tag_119:\n        /* \"#utility.yul\":5931:6051   */\n      pop\n      jump\t// out\n        /* \"#utility.yul\":6057:6179   */\n    tag_45:\n        /* \"#utility.yul\":6130:6154   */\n      tag_121\n        /* \"#utility.yul\":6148:6153   */\n      dup2\n        /* \"#utility.yul\":6130:6154   */\n      tag_75\n      jump\t// in\n    tag_121:\n        /* \"#utility.yul\":6123:6128   */\n      dup2\n        /* \"#utility.yul\":6120:6155   */\n      eq\n        /* \"#utility.yul\":6110:6173   */\n      tag_122\n      jumpi\n        /* \"#utility.yul\":6169:6170   */\n      0x00\n        /* \"#utility.yul\":6166:6167   */\n      dup1\n        /* \"#utility.yul\":6159:6171   */\n      revert\n        /* \"#utility.yul\":6110:6173   */\n    tag_122:\n        /* \"#utility.yul\":6057:6179   */\n      pop\n      jump\t// out\n        /* \"#utility.yul\":6185:6305   */\n    tag_52:\n        /* \"#utility.yul\":6257:6280   */\n      tag_124\n        /* \"#utility.yul\":6274:6279   */\n      dup2\n        /* \"#utility.yul\":6257:6280   */\n      tag_109\n      jump\t// in\n    tag_124:\n        /* \"#utility.yul\":6250:6255   */\n      dup2\n        /* \"#utility.yul\":6247:6281   */\n      eq\n        /* \"#utility.yul\":6237:6299   */\n      tag_125\n      jumpi\n        /* \"#utility.yul\":6295:6296   */\n      0x00\n        /* \"#utility.yul\":6292:6293   */\n      dup1\n        /* \"#utility.yul\":6285:6297   */\n      revert\n        /* \"#utility.yul\":6237:6299   */\n    tag_125:\n        /* \"#utility.yul\":6185:6305   */\n      pop\n      jump\t// out\n\n    auxdata: 0xa26469706673582212206c2b3f2bada56ce118005bd8e677b23a2349efbd9e618b91ed9fc8562e4f124064736f6c63430008070033\n}\n",
				"bytecode": {
					"linkReferences": {},
					"object": "60806040526802b5e3af16b188000060005534801561001d57600080fd5b506106398061002d6000396000f3fe6080604052600436106100345760003560e01c80634c03815c146100395780638e15f47314610076578063b60d4288146100a1575b600080fd5b34801561004557600080fd5b50610060600480360381019061005b9190610240565b6100ab565b60405161006d919061033a565b60405180910390f35b34801561008257600080fd5b5061008b6100e5565b604051610098919061033a565b60405180910390f35b6100a961019d565b005b6000806100b66100e5565b90506000670de0b6b3a764000082856100cf91906104ae565b6100d99190610366565b90508092505050919050565b60008073d4a33860578de61dbabdc8bfdb98fd742fa7028e905060008173ffffffffffffffffffffffffffffffffffffffff1663feaf968c6040518163ffffffff1660e01b815260040160a06040518083038186803b15801561014757600080fd5b505afa15801561015b573d6000803e3d6000fd5b505050506040513d601f19601f8201168201806040525081019061017f919061026d565b5050509150506402540be400816101969190610397565b9250505090565b6000546101a9346100ab565b10156101ea576040517f08c379a00000000000000000000000000000000000000000000000000000000081526004016101e19061031a565b60405180910390fd5b565b6000815190506101fb816105be565b92915050565b600081359050610210816105d5565b92915050565b600081519050610225816105d5565b92915050565b60008151905061023a816105ec565b92915050565b60006020828403121561025657610255610590565b5b600061026484828501610201565b91505092915050565b600080600080600060a0868803121561028957610288610590565b5b60006102978882890161022b565b95505060206102a8888289016101ec565b94505060406102b988828901610216565b93505060606102ca88828901610216565b92505060806102db8882890161022b565b9150509295509295909350565b60006102f5601b83610355565b915061030082610595565b602082019050919050565b61031481610512565b82525050565b60006020820190508181036000830152610333816102e8565b9050919050565b600060208201905061034f600083018461030b565b92915050565b600082825260208201905092915050565b600061037182610512565b915061037c83610512565b92508261038c5761038b610561565b5b828204905092915050565b60006103a282610508565b91506103ad83610508565b9250827f7fffffffffffffffffffffffffffffffffffffffffffffffffffffffffffffff04821160008413600084131616156103ec576103eb610532565b5b817f8000000000000000000000000000000000000000000000000000000000000000058312600084126000841316161561042957610428610532565b5b827f8000000000000000000000000000000000000000000000000000000000000000058212600084136000841216161561046657610465610532565b5b827f7fffffffffffffffffffffffffffffffffffffffffffffffffffffffffffffff05821260008412600084121616156104a3576104a2610532565b5b828202905092915050565b60006104b982610512565b91506104c483610512565b9250817fffffffffffffffffffffffffffffffffffffffffffffffffffffffffffffffff04831182151516156104fd576104fc610532565b5b828202905092915050565b6000819050919050565b6000819050919050565b600069ffffffffffffffffffff82169050919050565b7f4e487b7100000000000000000000000000000000000000000000000000000000600052601160045260246000fd5b7f4e487b7100000000000000000000000000000000000000000000000000000000600052601260045260246000fd5b600080fd5b7f596f75206e65656420746f207370656e64206d6f726520455448210000000000600082015250565b6105c781610508565b81146105d257600080fd5b50565b6105de81610512565b81146105e957600080fd5b50565b6105f58161051c565b811461060057600080fd5b5056fea26469706673582212206c2b3f2bada56ce118005bd8e677b23a2349efbd9e618b91ed9fc8562e4f124064736f6c63430008070033",
					"opcodes": "PUSH1 0x80 PUSH1 0x40 MSTORE PUSH9 0x2B5E3AF16B1880000 PUSH1 0x0 SSTORE CALLVALUE DUP1 ISZERO PUSH2 0x1D JUMPI PUSH1 0x0 DUP1 REVERT JUMPDEST POP PUSH2 0x639 DUP1 PUSH2 0x2D PUSH1 0x0 CODECOPY PUSH1 0x0 RETURN INVALID PUSH1 0x80 PUSH1 0x40 MSTORE PUSH1 0x4 CALLDATASIZE LT PUSH2 0x34 JUMPI PUSH1 0x0 CALLDATALOAD PUSH1 0xE0 SHR DUP1 PUSH4 0x4C03815C EQ PUSH2 0x39 JUMPI DUP1 PUSH4 0x8E15F473 EQ PUSH2 0x76 JUMPI DUP1 PUSH4 0xB60D4288 EQ PUSH2 0xA1 JUMPI JUMPDEST PUSH1 0x0 DUP1 REVERT JUMPDEST CALLVALUE DUP1 ISZERO PUSH2 0x45 JUMPI PUSH1 0x0 DUP1 REVERT JUMPDEST POP PUSH2 0x60 PUSH1 0x4 DUP1 CALLDATASIZE SUB DUP2 ADD SWAP1 PUSH2 0x5B SWAP2 SWAP1 PUSH2 0x240 JUMP JUMPDEST PUSH2 0xAB JUMP JUMPDEST PUSH1 0x40 MLOAD PUSH2 0x6D SWAP2 SWAP1 PUSH2 0x33A JUMP JUMPDEST PUSH1 0x40 MLOAD DUP1 SWAP2 SUB SWAP1 RETURN JUMPDEST CALLVALUE DUP1 ISZERO PUSH2 0x82 JUMPI PUSH1 0x0 DUP1 REVERT JUMPDEST POP PUSH2 0x8B PUSH2 0xE5 JUMP JUMPDEST PUSH1 0x40 MLOAD PUSH2 0x98 SWAP2 SWAP1 PUSH2 0x33A JUMP JUMPDEST PUSH1 0x40 MLOAD DUP1 SWAP2 SUB SWAP1 RETURN JUMPDEST PUSH2 0xA9 PUSH2 0x19D JUMP JUMPDEST STOP JUMPDEST PUSH1 0x0 DUP1 PUSH2 0xB6 PUSH2 0xE5 JUMP JUMPDEST SWAP1 POP PUSH1 0x0 PUSH8 0xDE0B6B3A7640000 DUP3 DUP6 PUSH2 0xCF SWAP2 SWAP1 PUSH2 0x4AE JUMP JUMPDEST PUSH2 0xD9 SWAP2 SWAP1 PUSH2 0x366 JUMP JUMPDEST SWAP1 POP DUP1 SWAP3 POP POP POP SWAP2 SWAP1 POP JUMP JUMPDEST PUSH1 0x0 DUP1 PUSH20 0xD4A33860578DE61DBABDC8BFDB98FD742FA7028E SWAP1 POP PUSH1 0x0 DUP2 PUSH20 0xFFFFFFFFFFFFFFFFFFFFFFFFFFFFFFFFFFFFFFFF AND PUSH4 0xFEAF968C PUSH1 0x40 MLOAD DUP2 PUSH4 0xFFFFFFFF AND PUSH1 0xE0 SHL DUP2 MSTORE PUSH1 0x4 ADD PUSH1 0xA0 PUSH1 0x40 MLOAD DUP1 DUP4 SUB DUP2 DUP7 DUP1 EXTCODESIZE ISZERO DUP1 ISZERO PUSH2 0x147 JUMPI PUSH1 0x0 DUP1 REVERT JUMPDEST POP GAS STATICCALL ISZERO DUP1 ISZERO PUSH2 0x15B JUMPI RETURNDATASIZE PUSH1 0x0 DUP1 RETURNDATACOPY RETURNDATASIZE PUSH1 0x0 REVERT JUMPDEST POP POP POP POP PUSH1 0x40 MLOAD RETURNDATASIZE PUSH1 0x1F NOT PUSH1 0x1F DUP3 ADD AND DUP3 ADD DUP1 PUSH1 0x40 MSTORE POP DUP2 ADD SWAP1 PUSH2 0x17F SWAP2 SWAP1 PUSH2 0x26D JUMP JUMPDEST POP POP POP SWAP2 POP POP PUSH5 0x2540BE400 DUP2 PUSH2 0x196 SWAP2 SWAP1 PUSH2 0x397 JUMP JUMPDEST SWAP3 POP POP POP SWAP1 JUMP JUMPDEST PUSH1 0x0 SLOAD PUSH2 0x1A9 CALLVALUE PUSH2 0xAB JUMP JUMPDEST LT ISZERO PUSH2 0x1EA JUMPI PUSH1 0x40 MLOAD PUSH32 0x8C379A000000000000000000000000000000000000000000000000000000000 DUP2 MSTORE PUSH1 0x4 ADD PUSH2 0x1E1 SWAP1 PUSH2 0x31A JUMP JUMPDEST PUSH1 0x40 MLOAD DUP1 SWAP2 SUB SWAP1 REVERT JUMPDEST JUMP JUMPDEST PUSH1 0x0 DUP2 MLOAD SWAP1 POP PUSH2 0x1FB DUP2 PUSH2 0x5BE JUMP JUMPDEST SWAP3 SWAP2 POP POP JUMP JUMPDEST PUSH1 0x0 DUP2 CALLDATALOAD SWAP1 POP PUSH2 0x210 DUP2 PUSH2 0x5D5 JUMP JUMPDEST SWAP3 SWAP2 POP POP JUMP JUMPDEST PUSH1 0x0 DUP2 MLOAD SWAP1 POP PUSH2 0x225 DUP2 PUSH2 0x5D5 JUMP JUMPDEST SWAP3 SWAP2 POP POP JUMP JUMPDEST PUSH1 0x0 DUP2 MLOAD SWAP1 POP PUSH2 0x23A DUP2 PUSH2 0x5EC JUMP JUMPDEST SWAP3 SWAP2 POP POP JUMP JUMPDEST PUSH1 0x0 PUSH1 0x20 DUP3 DUP5 SUB SLT ISZERO PUSH2 0x256 JUMPI PUSH2 0x255 PUSH2 0x590 JUMP JUMPDEST JUMPDEST PUSH1 0x0 PUSH2 0x264 DUP5 DUP3 DUP6 ADD PUSH2 0x201 JUMP JUMPDEST SWAP2 POP POP SWAP3 SWAP2 POP POP JUMP JUMPDEST PUSH1 0x0 DUP1 PUSH1 0x0 DUP1 PUSH1 0x0 PUSH1 0xA0 DUP7 DUP9 SUB SLT ISZERO PUSH2 0x289 JUMPI PUSH2 0x288 PUSH2 0x590 JUMP JUMPDEST JUMPDEST PUSH1 0x0 PUSH2 0x297 DUP9 DUP3 DUP10 ADD PUSH2 0x22B JUMP JUMPDEST SWAP6 POP POP PUSH1 0x20 PUSH2 0x2A8 DUP9 DUP3 DUP10 ADD PUSH2 0x1EC JUMP JUMPDEST SWAP5 POP POP PUSH1 0x40 PUSH2 0x2B9 DUP9 DUP3 DUP10 ADD PUSH2 0x216 JUMP JUMPDEST SWAP4 POP POP PUSH1 0x60 PUSH2 0x2CA DUP9 DUP3 DUP10 ADD PUSH2 0x216 JUMP JUMPDEST SWAP3 POP POP PUSH1 0x80 PUSH2 0x2DB DUP9 DUP3 DUP10 ADD PUSH2 0x22B JUMP JUMPDEST SWAP2 POP POP SWAP3 SWAP6 POP SWAP3 SWAP6 SWAP1 SWAP4 POP JUMP JUMPDEST PUSH1 0x0 PUSH2 0x2F5 PUSH1 0x1B DUP4 PUSH2 0x355 JUMP JUMPDEST SWAP2 POP PUSH2 0x300 DUP3 PUSH2 0x595 JUMP JUMPDEST PUSH1 0x20 DUP3 ADD SWAP1 POP SWAP2 SWAP1 POP JUMP JUMPDEST PUSH2 0x314 DUP2 PUSH2 0x512 JUMP JUMPDEST DUP3 MSTORE POP POP JUMP JUMPDEST PUSH1 0x0 PUSH1 0x20 DUP3 ADD SWAP1 POP DUP2 DUP2 SUB PUSH1 0x0 DUP4 ADD MSTORE PUSH2 0x333 DUP2 PUSH2 0x2E8 JUMP JUMPDEST SWAP1 POP SWAP2 SWAP1 POP JUMP JUMPDEST PUSH1 0x0 PUSH1 0x20 DUP3 ADD SWAP1 POP PUSH2 0x34F PUSH1 0x0 DUP4 ADD DUP5 PUSH2 0x30B JUMP JUMPDEST SWAP3 SWAP2 POP POP JUMP JUMPDEST PUSH1 0x0 DUP3 DUP3 MSTORE PUSH1 0x20 DUP3 ADD SWAP1 POP SWAP3 SWAP2 POP POP JUMP JUMPDEST PUSH1 0x0 PUSH2 0x371 DUP3 PUSH2 0x512 JUMP JUMPDEST SWAP2 POP PUSH2 0x37C DUP4 PUSH2 0x512 JUMP JUMPDEST SWAP3 POP DUP3 PUSH2 0x38C JUMPI PUSH2 0x38B PUSH2 0x561 JUMP JUMPDEST JUMPDEST DUP3 DUP3 DIV SWAP1 POP SWAP3 SWAP2 POP POP JUMP JUMPDEST PUSH1 0x0 PUSH2 0x3A2 DUP3 PUSH2 0x508 JUMP JUMPDEST SWAP2 POP PUSH2 0x3AD DUP4 PUSH2 0x508 JUMP JUMPDEST SWAP3 POP DUP3 PUSH32 0x7FFFFFFFFFFFFFFFFFFFFFFFFFFFFFFFFFFFFFFFFFFFFFFFFFFFFFFFFFFFFFFF DIV DUP3 GT PUSH1 0x0 DUP5 SGT PUSH1 0x0 DUP5 SGT AND AND ISZERO PUSH2 0x3EC JUMPI PUSH2 0x3EB PUSH2 0x532 JUMP JUMPDEST JUMPDEST DUP2 PUSH32 0x8000000000000000000000000000000000000000000000000000000000000000 SDIV DUP4 SLT PUSH1 0x0 DUP5 SLT PUSH1 0x0 DUP5 SGT AND AND ISZERO PUSH2 0x429 JUMPI PUSH2 0x428 PUSH2 0x532 JUMP JUMPDEST JUMPDEST DUP3 PUSH32 0x8000000000000000000000000000000000000000000000000000000000000000 SDIV DUP3 SLT PUSH1 0x0 DUP5 SGT PUSH1 0x0 DUP5 SLT AND AND ISZERO PUSH2 0x466 JUMPI PUSH2 0x465 PUSH2 0x532 JUMP JUMPDEST JUMPDEST DUP3 PUSH32 0x7FFFFFFFFFFFFFFFFFFFFFFFFFFFFFFFFFFFFFFFFFFFFFFFFFFFFFFFFFFFFFFF SDIV DUP3 SLT PUSH1 0x0 DUP5 SLT PUSH1 0x0 DUP5 SLT AND AND ISZERO PUSH2 0x4A3 JUMPI PUSH2 0x4A2 PUSH2 0x532 JUMP JUMPDEST JUMPDEST DUP3 DUP3 MUL SWAP1 POP SWAP3 SWAP2 POP POP JUMP JUMPDEST PUSH1 0x0 PUSH2 0x4B9 DUP3 PUSH2 0x512 JUMP JUMPDEST SWAP2 POP PUSH2 0x4C4 DUP4 PUSH2 0x512 JUMP JUMPDEST SWAP3 POP DUP2 PUSH32 0xFFFFFFFFFFFFFFFFFFFFFFFFFFFFFFFFFFFFFFFFFFFFFFFFFFFFFFFFFFFFFFFF DIV DUP4 GT DUP3 ISZERO ISZERO AND ISZERO PUSH2 0x4FD JUMPI PUSH2 0x4FC PUSH2 0x532 JUMP JUMPDEST JUMPDEST DUP3 DUP3 MUL SWAP1 POP SWAP3 SWAP2 POP POP JUMP JUMPDEST PUSH1 0x0 DUP2 SWAP1 POP SWAP2 SWAP1 POP JUMP JUMPDEST PUSH1 0x0 DUP2 SWAP1 POP SWAP2 SWAP1 POP JUMP JUMPDEST PUSH1 0x0 PUSH10 0xFFFFFFFFFFFFFFFFFFFF DUP3 AND SWAP1 POP SWAP2 SWAP1 POP JUMP JUMPDEST PUSH32 0x4E487B7100000000000000000000000000000000000000000000000000000000 PUSH1 0x0 MSTORE PUSH1 0x11 PUSH1 0x4 MSTORE PUSH1 0x24 PUSH1 0x0 REVERT JUMPDEST PUSH32 0x4E487B7100000000000000000000000000000000000000000000000000000000 PUSH1 0x0 MSTORE PUSH1 0x12 PUSH1 0x4 MSTORE PUSH1 0x24 PUSH1 0x0 REVERT JUMPDEST PUSH1 0x0 DUP1 REVERT JUMPDEST PUSH32 0x596F75206E65656420746F207370656E64206D6F726520455448210000000000 PUSH1 0x0 DUP3 ADD MSTORE POP JUMP JUMPDEST PUSH2 0x5C7 DUP2 PUSH2 0x508 JUMP JUMPDEST DUP2 EQ PUSH2 0x5D2 JUMPI PUSH1 0x0 DUP1 REVERT JUMPDEST POP JUMP JUMPDEST PUSH2 0x5DE DUP2 PUSH2 0x512 JUMP JUMPDEST DUP2 EQ PUSH2 0x5E9 JUMPI PUSH1 0x0 DUP1 REVERT JUMPDEST POP JUMP JUMPDEST PUSH2 0x5F5 DUP2 PUSH2 0x51C JUMP JUMPDEST DUP2 EQ PUSH2 0x600 JUMPI PUSH1 0x0 DUP1 REVERT JUMPDEST POP JUMP INVALID LOG2 PUSH5 0x6970667358 0x22 SLT KECCAK256 PUSH13 0x2B3F2BADA56CE118005BD8E677 0xB2 GASPRICE 0x23 0x49 0xEF 0xBD SWAP15 PUSH2 0x8B91 0xED SWAP16 0xC8 JUMP 0x2E 0x4F SLT BLOCKHASH PUSH5 0x736F6C6343 STOP ADDMOD SMOD STOP CALLER "
				},
				"gasEstimates": {
					"creation": {
						"codeDepositCost": "318600",
						"executionCost": "22461",
						"totalCost": "341061"
					},
					"external": {
						"fund()": "infinite",
						"getConversationRate(uint256)": "infinite",
						"getLatestPrice()": "infinite"
					}
				},
				"methodIdentifiers": {
					"fund()": "b60d4288",
					"getConversationRate(uint256)": "4c03815c",
					"getLatestPrice()": "8e15f473"
				}
			},
			"storageLayout": {
				"storage": [
					{
						"astId": 54,
						"contract": "contracts/4.FundMe.sol:FundMe",
						"label": "MINIMUM_USD",
						"offset": 0,
						"slot": "0",
						"type": "t_uint256"
					}
				],
				"types": {
					"t_uint256": {
						"encoding": "inplace",
						"label": "uint256",
						"numberOfBytes": "32"
					}
				}
			},
			"userdoc": {
				"kind": "user",
				"methods": {},
				"notice": "Network: Goerli Aggregator: ETH/USD Address: 0xD4a33860578De61DBAbDc8BFdb98FD742fA7028e",
				"version": 1
			}
		}
	}
}